:100000000C945B000C9483000C9483000C9483008C
:100010000C9483000C9483000C9483000C94830054
:100020000C9483000C9483000C9483000C94830044
:100030000C9483000C9483000C9483000C94830034
:100040000C944F010C9483000C94FD030C948300DA
:100050000C9483000C9483000C9483000C94830014
:100060000C9483000C948300000024272A000025B0
:10007000282B000023262904040404040404040299
:100080000202020202030303030303010204081035
:100090002040800102040810200102040810200002
:1000A0000000070002010000030406000000000039
:1000B00000000000CD0211241FBECFEFD4E0DEBF50
:1000C000CDBF11E0A0E0B1E0E6E1FBE002C00590A9
:1000D0000D92A630B107D9F711E0A6E0B1E001C05A
:1000E0001D92A53AB107E1F710E0C6EBD0E004C0DD
:1000F0002297FE010E948605C43BD107C9F70E94E2
:1001000044010C948A050C940000BF92CF92DF92B8
:10011000EF92FF920F931F93CF93DF938C017B019C
:10012000D42EC62E61E08E2D0E94CE02B02E61E04C
:10013000802F0E94CE0260E0802F0E94380360E092
:100140008E2D0E943803C7E0D0E00D2D112760E00E
:100150008C2D0E943803B8010C2E02C0759567954E
:100160000A94E2F7617070708B2D0E94380361E091
:100170008C2D0E94380360E08B2D0E94380321975C
:100180008FEFCF3FD80719F760E08C2D0E9438031E
:10019000DF91CF911F910F91FF90EF90DF90CF9063
:1001A000BF900895CF93DF93C0E0D0E0FE01E85FF9
:1001B000FE4F808180930601FE01EE5EFE4F80813E
:1001C0008093070160E0809100010E9438036091F4
:1001D0000201709103014091070180910401909107
:1001E00005010E9485006091020170910301409118
:1001F000060180910401909105010E94850061E053
:10020000809100010E94380368EC70E080E090E08B
:100210000E948C012196C730D10541F6DF91CF9124
:10022000089561E0809100010E94CE0240E855E20D
:1002300060E070E08CE191E00E94C70281E1809370
:1002400008018093090110920A0184E480930B0154
:1002500010920C0110920D0110920E0110920F01DC
:100260008DED8093120183EF809313018FEC8093C7
:10027000140110921501109216011092170110929C
:100280001801109219010895CFEFD4E0DEBFCDBF61
:100290000E94BB010E9411010E94D200FDCF1F925B
:1002A0000F920FB60F9211248F939F93AF93BF932A
:1002B0008091210190912201A0912301B09124010C
:1002C0000196A11DB11D8093210190932201A0935D
:1002D0002301B0932401BF91AF919F918F910F9013
:1002E0000FBE0F901F90189560912101709122010F
:1002F000809123019091240127E0660F771F881FCA
:10030000991F2A95D1F72DE730E040E050E00E9498
:100310003305CA01B9010895AF92BF92CF92DF921F
:10032000EF92FF920F931F935B016C010E94740187
:100330007B018C010E9474016E197F09800B910B67
:100340006A157B058C059D05A8F31F910F91FF9001
:10035000EF90DF90CF90BF90AF900895019751F04C
:10036000880F991F880F991F02972FB7F89401974C
:10037000F1F72FBF08957894109221011092220175
:10038000109223011092240184B5826084BD84B54B
:10039000816084BD85B5826085BD85B5816085BD80
:1003A000EEE6F0E0808181608083E1E8F0E080812A
:1003B00082608083808181608083E0E8F0E08081DA
:1003C00081608083E1EBF0E0808184608083E0EBFA
:1003D000F0E0808181608083EAE7F0E080818460E2
:1003E000808380818260808380818160808380813E
:1003F000806880831092C100089508950895CB010C
:10040000BA013327442755270E94430408952AE060
:100410000E94FF010895AB01662777270E9407021B
:100420000895862F0E943B040895862F0E943B0466
:1004300008950F931F938C016DE00E9415026AE0EE
:10044000C8010E9415021F910F9108950F931F93E9
:100450008C010E940702C8010E9419021F910F918E
:1004600008950F931F938C010E940B02C8010E94F4
:1004700019021F910F9108950F931F938C010E94F1
:100480001102C8010E9419021F910F9108950F9344
:100490001F938C010E941502C8010E9419021F912E
:1004A0000F910895EF92FF920F931F93CF93DF93D5
:1004B000EC017A018B0177FF0BC06DE20E941502FF
:1004C00010950095F094E094E11CF11C011D111DA4
:1004D0002AE0B801A701CE010E94FF01DF91CF9170
:1004E0001F910F91FF90EF9008950F931F938C0130
:1004F0000E945202C8010E9419021F910F91089593
:100500002115310521F4642F0E94150208952A3027
:10051000310519F40E94520208950E94FF010895C6
:100520000F931F938C010E948002C8010E94190240
:100530001F910F910895AB01662757FD6095762FA7
:100540000E94520208950F931F938C010E949B02F8
:10055000C8010E9419021F910F910895CB010E94BA
:10056000130508950F931F938C010E94AE02C801DA
:100570000E9419021F910F9108950E94F40308959B
:100580000E94D50308950E94C40399270895CB01C2
:10059000BA010E948303089508950895282F3327F0
:1005A000C90185579F4FFC01949129583F4FF9018C
:1005B0008491882381F0E82FFF27E859FF4FE491C9
:1005C000FF27662329F480819095892380830895ED
:1005D0008081892B80830895482F5527CA01815631
:1005E0009F4FFC012491CA0185579F4FFC019491B4
:1005F00049585F4FFA013491332319F480E090E0B9
:100600000895222331F1233021F4809180008F77E7
:1006100005C0243031F4809180008F7D809380006C
:1006200018C0213019F484B58F7704C0223021F42A
:1006300084B58F7D84BD0DC0263021F48091B0003B
:100640008F7705C0273029F48091B0008F7D80938B
:10065000B000E32FFF27EE58FF4FE491FF27808182
:1006600020E030E0892311F021E030E0C901089555
:10067000482F5527CA0181569F4FFC012491CA017A
:1006800085579F4FFC01949149585F4FFA0134916F
:100690003323C1F1222331F1233021F480918000F2
:1006A0008F7705C0243031F4809180008F7D809356
:1006B000800018C0213019F484B58F7704C022302F
:1006C00021F484B58F7D84BD0DC0263021F4809146
:1006D000B0008F7705C0273029F48091B0008F7D5E
:1006E0008093B000E32FFF27E359FF4FE491FF27EA
:1006F000662329F4808190958923808308958081E1
:10070000892B80830895EF92FF920F931F937B01B3
:100710008C0122E030E040E050E00E945505205C72
:100720003D4B404F5F4FCA01B901A80197010E949C
:1007300055052150304040405040BB2757FDBA95E9
:10074000A52F942F832F2F5F3F4F4F4F5F4F8093E5
:10075000C50021502093C400E1ECF0E0808180616D
:1007600080838081886080838081806880831F91FE
:100770000F91FF90EF900895982F8091C00085FF12
:10078000FCCF9093C600089580911D0190911E01A9
:1007900080589F4F20911F0130912001821B930BA5
:1007A00060E870E00E942005089540911F0150917B
:1007B000200180911D0190911E018417950719F465
:1007C0008FEF9FEF0895FA01EB5DFE4F2081CA0184
:1007D000019660E870E00E942005909320018093CC
:1007E0001F01822F9927089580911F019091200168
:1007F00090931E0180931D0108951F920F920FB6D2
:100800000F9211242F933F934F935F936F937F9396
:100810008F939F93AF93BF93EF93FF934091C60045
:10082000E0911D01F0911E01CF01019660E870E09A
:100830000E9420059C0180911F01909120012817A2
:10084000390739F0EB5DFE4F408330931E01209352
:100850001D01FF91EF91BF91AF919F918F917F917A
:100860006F915F914F913F912F910F900FBE0F901D
:100870001F9018950895982F8091C00085FFFCCF98
:100880009093C60008952F923F924F925F926F927D
:100890007F928F929F92AF92BF92CF92DF92EF9210
:1008A000FF920F931F93CF93DF93CDB7DEB7A0973F
:1008B0000FB6F894DEBF0FBECDBF6B017C012901DE
:1008C0003A01611571058105910541F48091C000DF
:1008D00085FFFCCF80E38093C6004BC08824992419
:1008E00054011E010894211C311C8101080D191DA1
:1008F000C701B601A30192010E943305F80160838C
:100900000894811C911CA11CB11CC701B601A30154
:1009100092010E94330569017A01211531054105D3
:10092000510519F7089481089108A108B108F1014F
:10093000E80DF91D0894811C911CA11CB11C14C068
:10094000089481089108A108B10880818A3018F4C0
:10095000982F905D02C0982F995C8091C00085FF10
:10096000FCCF9093C600319781149104A104B10487
:1009700039F7A0960FB6F894DEBF0FBECDBFDF915A
:10098000CF911F910F91FF90EF90DF90CF90BF908C
:10099000AF909F908F907F906F905F904F903F901F
:1009A0002F90089520E130E040E050E00E944304A1
:1009B000089528E030E040E050E00E9443040895AC
:1009C00022E030E040E050E00E944304089580912E
:1009D000C00085FFFCCF8AE08093C6000895EF92A7
:1009E000FF920F931F937B018C0197FF0FC08091A3
:1009F000C00085FFFCCF8DE28093C6001095009566
:100A0000F094E094E11CF11C011D111D2AE030E07E
:100A100040E050E0C801B7010E9443041F910F91CC
:100A2000FF90EF900895FC0107C08091C00085FF02
:100A3000FCCF31969093C60090819923B1F7089529
:100A400097FB092E07260AD077FD04D049D006D09F
:100A500000201AF4709561957F4F0895F6F79095F0
:100A600081959F4F0895A1E21A2EAA1BBB1BFD0181
:100A70000DC0AA1FBB1FEE1FFF1FA217B307E4077D
:100A8000F50720F0A21BB30BE40BF50B661F771FD5
:100A9000881F991F1A9469F76095709580959095B5
:100AA0009B01AC01BD01CF01089597FB092E0526DE
:100AB0000ED057FD04D0D7DF0AD0001C38F4509573
:100AC0004095309521953F4F4F4F5F4F0895F6F772
:100AD00090958095709561957F4F8F4F9F4F0895AA
:100AE000AA1BBB1B51E107C0AA1FBB1FA617B70754
:100AF00010F0A61BB70B881F991F5A95A9F7809570
:100B00009095BC01CD010895EE0FFF1F0590F49163
:060B1000E02D0994FFCF67
:060B160008000C000B00BA
:00000001FF
