:1000000039C05DC05CC05BC05AC059C058C057C041
:1000100056C013C154C041C352C051C050C04FC09C
:100020004EC04DC04CC0000037343100003835326E
:100030000000363330040404040404040402020201
:100040000202020303030303030102040810204019
:1000500080010204081020010204081020000000A2
:100060000000000000000304050000000000000084
:100070000000E40211241FBECFE5D4E0DEBFCDBFF7
:1000800010E0A0E6B0E0ECE7F9E002C005900D92C8
:10009000A636B107D9F711E0A6E6B0E001C01D927F
:1000A000A130B107E1F710E0C4E7D0E003C0229728
:1000B000FE015FD4C237D107D1F7B7D05EC4A0CF5D
:1000C000BF92CF92DF92EF92FF920F931F93CF9345
:1000D000DF938C017B01D42EC62E61E08E2D3DD1A5
:1000E000B02E61E0802F39D160E0802F8AD160E0AE
:1000F0008E2D87D1C7E0D0E00D2D112760E08C2D2B
:1001000080D1B8010C2E02C0759567950A94E2F76C
:10011000617070708B2D75D161E08C2D72D160E0B3
:100120008B2D6FD121978FEFCF3FD80739F760E044
:100130008C2D67D1DF91CF911F910F91FF90EF90A0
:10014000DF90CF90BF900895CF93DF93C0E0D0E0D1
:10015000C930D1053CF0FE01E859FF4F8081809302
:1001600066000AC0CE0162E070E09DD3FB01E05959
:10017000FF4F80818093670060E08091600041D1F3
:1001800060916200709163008091640090916500BD
:10019000C930D1051CF44091670002C0409166004F
:1001A0008FDF61E0809160002CD16CE271E080E033
:1001B00090E07FD02196C031D10551F6DF91CF91EB
:1001C000089561E080916000C8D040E855E260E0A9
:1001D00070E088E790E0F3D171E07093680062E02E
:1001E0006093690054E050936A0048E040936B00CC
:1001F00030E130936C0020E220936D0090E4909306
:100200006E0080E880936F007093700060937100BF
:1002100050937200409373003093740020937500E4
:1002200090937600809377000895CFE5D4E0DEBF09
:10023000CDBF6CD0C6DF88DFFECF1F920F920FB606
:100240000F9211248F939F93AF93BF9380917D0062
:1002500090917E00A0917F00B09180000196A11D39
:10026000B11D80937D0090937E00A0937F00B0939A
:100270008000BF91AF919F918F910F900FBE0F9013
:100280001F90189560917D0070917E0080917F0095
:100290009091800027E0660F771F881F991F2A958D
:1002A000D1F72DE730E040E050E010D3CA01B901AA
:1002B0000895AF92BF92CF92DF92EF92FF920F9389
:1002C0001F935B016C01DEDF7B018C01DBDF6E19AC
:1002D0007F09800B910B6A157B058C059D05B0F39A
:1002E0001F910F91FF90EF90DF90CF90BF90AF9054
:1002F0000895019751F0880F991F880F991F029751
:100300002FB7F8940197F1F72FBF089578941092C2
:100310007D0010927E0010927F001092800083B7C3
:10032000826083BF83B7816083BF89B7816089BFE3
:100330008EB582608EBD8EB581608EBD8FB58160B9
:100340008FBD85B5846085BD85B5806485BD329AD5
:10035000319A309A379A1AB80895282F3327C9014D
:10036000875B9F4FFC0194912B5C3F4FF901849177
:10037000882381F0E82FFF27EA5DFF4FE491FF27F4
:10038000662329F480819095892380830895808154
:10039000892B80830895482F5527CA01835A9F4F80
:1003A000FC012491CA01875B9F4FFC0194914B5C37
:1003B0005F4FFA013491332319F480E090E00895FF
:1003C000222381F0233019F48FB58F7704C02430B5
:1003D00021F48FB58F7D8FBD05C0253019F485B50B
:1003E0008F7D85BDE32FFF27E05DFF4FE491FF2761
:1003F000808120E030E0892311F021E030E0C90164
:100400000895482F5527CA01835A9F4FFC01249114
:10041000CA01875B9F4FFC0194914B5C5F4FFA01CF
:100420003491332311F1222381F0233019F48FB555
:100430008F7704C0243021F48FB58F7D8FBD05C028
:10044000253019F485B58F7D85BDE32FFF27E55D48
:10045000FF4FE491FF27662329F48081909589233B
:10046000808308958081892B80830895089508955D
:10047000CB01BA013327442755274FD108952AE0ED
:10048000F7DF0895AB0166277727F9DF0895862FF8
:1004900040D10895862F3DD108950F931F938C016D
:1004A0006DE0F8DF6AE0C801F5DF1F910F91089554
:1004B0000F931F938C01E3DFC801EFDF1F910F91B2
:1004C00008950F931F938C01DDDFC801E6DF1F91B4
:1004D0000F9108950F931F938C01D9DFC801DDDFC1
:1004E0001F910F9108950F931F938C01D3DFC801C3
:1004F000D4DF1F910F910895EF92FF920F931F93F6
:10050000CF93DF93EC017A018B0177FF0AC06DE294
:10051000C1DF10950095F094E094E11CF11C011DE1
:10052000111D2AE0B801A701CE01A2DFDF91CF9112
:100530001F910F91FF90EF9008950F931F938C01DF
:10054000DBDFC801AADF1F910F9108952115310546
:1005500019F4642F9FDF08952A30310511F4CCDFA0
:10056000089586DF08950F931F938C01EFDFC80174
:1005700094DF1F910F910895AB01662757FD609599
:10058000762FBADF08950F931F938C01F5DFC80112
:1005900084DF1F910F910895CB017BD108950F93B4
:1005A0001F938C01F9DFC80178DF1F910F91089527
:1005B0006BD008954BD0089539D099270895CB0179
:1005C000BA0103D0089508950895EF92FF920F9312
:1005D0001F937B018C0122E030E040E050E098D195
:1005E000205C3D4B404F5F4FCA01B901A801970104
:1005F0008FD12150304040405040BB2757FDBA9525
:10060000A52F942F832F2F5F3F4F4F4F5F4F80BDFC
:10061000215029B9549A539A579A1F910F91FF90DC
:10062000EF9008955D9BFECF8CB90895809179007D
:1006300090917A0080589F4F20917B0030917C00F0
:10064000821B930B60E870E02ED1089540917B00EF
:1006500050917C008091790090917A0084179507E1
:1006600019F48FEF9FEF0895FA01EF57FF4F2081A4
:10067000CA01019660E870E016D190937C008093E7
:100680007B00822F9927089580917B0090917C00B8
:1006900090937A008093790008951F920F920FB67D
:1006A0000F9211242F933F934F935F936F937F93F8
:1006B0008F939F93AF93BF93EF93FF934CB1E091D0
:1006C0007900F0917A00CF01019660E870E0EBD0FC
:1006D0009C0180917B0090917C002817390739F0AC
:1006E000EF57FF4F408330937A0020937900FF91BA
:1006F000EF91BF91AF919F918F917F916F915F919A
:100700004F913F912F910F900FBE0F901F90189512
:1007100008955D9BFECF8CB908952F923F924F9222
:100720005F926F927F928F929F92AF92BF92CF9281
:10073000DF92EF92FF920F931F93CF93DF93CDB78A
:10074000DEB7A0970FB6F894DEBF0FBECDBF6B012A
:100750007C0129013A01611571058105910529F492
:100760005D9BFECF80E38CB944C08824992454015A
:100770001E010894211C311C8101080D191DC7019F
:10078000B601A3019201A2D0F80160830894811CF4
:10079000911CA11CB11CC701B601A301920196D006
:1007A00069017A01211531054105510529F70894A0
:1007B00081089108A108B108F101E80DF91D08941C
:1007C000811C911CA11CB11C0FC0089481089108C8
:1007D000A108B10880818A3010F4805D01C0895C75
:1007E0005D9BFECF8CB9319781149104A104B104B3
:1007F00061F7A0960FB6F894DEBF0FBECDBFDF91B4
:10080000CF911F910F91FF90EF90DF90CF90BF900D
:10081000AF909F908F907F906F905F904F903F90A0
:100820002F90089520E130E040E050E076DF089519
:1008300028E030E040E050E070DF089522E030E052
:1008400040E050E06ADF08955D9BFECF8AE08CB9FE
:100850000895EF92FF920F931F937B018C0197FFF6
:100860000CC05D9BFECF8DE28CB910950095F09485
:10087000E094E11CF11C011D111D2AE030E040E074
:1008800050E0C801B70149DF1F910F91FF90EF9031
:100890000895FC0104C05D9BFECF31968CB9808128
:1008A0008823C9F7089597FB092E07260AD077FDFC
:1008B00004D049D006D000201AF4709561957F4F7E
:1008C0000895F6F7909581959F4F0895A1E21A2E0D
:1008D000AA1BBB1BFD010DC0AA1FBB1FEE1FFF1FE4
:1008E000A217B307E407F50720F0A21BB30BE40B34
:1008F000F50B661F771F881F991F1A9469F760957B
:100900007095809590959B01AC01BD01CF01089534
:1009100097FB092E05260ED057FD04D0D7DF0AD04D
:10092000001C38F450954095309521953F4F4F4F1E
:100930005F4F0895F6F790958095709561957F4F7C
:100940008F4F9F4F0895AA1BBB1B51E107C0AA1FE1
:10095000BB1FA617B70710F0A61BB70B881F991F60
:100960005A95A9F780959095BC01CD010895EE0F99
:0C097000FF1F0590F491E02D0994FFCFCB
:06097C0008000C000B0056
:00000001FF
