:100000000C940A150C9427150C9427150C9427159D
:100010000C9427150C9427150C9427150C94271570
:100020000C9427150C9427150C9427150C943E1549
:100030000C9427150C9427150C9427150C94271550
:100040000C940E160C9427150C9427150C94271558
:100050000C9427150C9427150C9427150C94271530
:100060000C9427150C9427150001010101010101D1
:100070000101010101010101010101010101010170
:100080000101010101010101010101010101010160
:100090000101010101010101010101010101010150
:1000A0000101010101010101010101010101010140
:1000B0000101010101010101010101010101010130
:1000C0000101010101010101010101010101010120
:1000D0000101010101010101010101010101010110
:1000E0000101010101010100000100010000010006
:1000F00001FEF7FBFCF6F8FBFBFBFDFDFAF9FCFE4D
:10010000FCFAF9F8F8F5F4F3F3F3F2F0EFEFEFEFB0
:10011000F1F2F2F2F3F3F2F1F1F3F3F2F1F2F3F4BC
:10012000F5F5F5F5F6F7F8FAFF050B1113110C05C7
:100130000000020405070A0B0A0702FCF8F5F2F2B8
:10014000F2F3F5F7F9FD00F4DCC6BDC1C6C8CCD4A6
:10015000DFE0D6C8BDB9B6B2AB9F9C9E9FA7A6975D
:1001600095B2D6E8F0F1DAB29BA6C0D2DBEBFE0185
:10017000EECEB6A892818080828D99A5B4C8DEF1BA
:10018000030E03E9D1C8CBD1D9E8FC0C0C02F7F07F
:10019000EAE3DEE1EAF0EFECEEF7040D1C281A00CA
:1001A000F0EEF5F5F7061820190D0A0700F8F6FD30
:1001B0000607050A131D242936361A00FBFF020123
:1001C000091D28211613130F0B0D121514131617E2
:1001D00013111113131518191B1F22211F1D1A1596
:1001E000111112111214151513121110100F0E0FF8
:1001F00011100F1012131416181613100E0B0806F8
:1002000006070909090B0C0B090908070503010575
:100210000C0E0F141613100D070304040205090B2E
:100220000E100F0B0501FEFCFE050E151D2A3224D3
:100230000D0403FCF5FC0F1C1C1C211F110501FB08
:10024000F6F7FF0A10172028363819FAF7F9F3F2F3
:1002500006222A211C1B0EFAF2F5F8FA010D1415DC
:100260001C2633381AF5F0F7F3F409252E21151260
:1002700005F1EBF5FDFBFF0C120F14212F341CF9D7
:10028000F1F6F3F4051E291F151105F3ECF5FDF841
:10029000F7050C0B122330362502F1F2F1F3021AA6
:1002A0002823171106F6EDF3FDFAF5FE08080C1CDD
:1002B0002C352C0CF4F2F1F1FA122626190F05F761
:1002C000ECEFFBFDF7FD06060713242E2A0EF4F0D3
:1002D000F1F2F90E23261A0D02F5EAEBF7FCF8FC11
:1002E00005060611212D290BF0EDF0F1F910262657
:1002F000190D03F5E9ECF8FBF8FC05080B16252FA2
:100300002706ECEAEDF0FC152926180BFFF1E7EEC5
:10031000F8F9F8FF07090D1A282D1EFCEAEBEFF398
:10032000021B28201207FBECE7F1F8F5F60008099C
:10033000101F2C2D13F3EAEEF0F6082025190D04FA
:10034000F8EAE7F1F5F2F702090D17262F22FFEA86
:10035000ECF1F2FC152620120901F2E5E9F2F0F0C9
:10036000FB070C111E2C2B0DEDE7EEF1F5082027F5
:100370001A0E09FEEDE5EAECEBF3010B111A292F39
:1003800019F5E6EAEDEDFC162520151009F8E8E66A
:10039000E8E7ECFA060E1725322804E9E7EBE9EE68
:1003A000041B211A151309F7EAE5E3E5F0FD08122D
:1003B0001E2C321EFDECECEEE9EF04171914141597
:1003C0000EFFF0E8E8EDF6FF050C141B1E1709FF01
:1003D000FF00FDFBFF0406050507070602FDFCFE06
:1003E000FEFDFDFE0205080A0908090A09080705BD
:1003F00004040403010001FFFCF8F7F9FAFBFF060F
:100400000B0B0A090A090706050505050403020185
:1004100000FEFAF6F5F6F8FAFF05090A08070808DB
:10042000080706070604020100FFFEFDFBF7F5F6CC
:10043000F8FBFD02050505050709090A0A09070475
:100440000200FFFEFEFEFCF9F8F9FAFBFD000203D4
:1004500002040607090B0C0B08050402FFFDFDFC56
:10046000FAF8F8FAFCFDFF01010101030406080B8C
:100470000D0C0907060300FDFDFCF9F8F8FAFCFD78
:10048000FF01010000020305080B0D0D0C0A070413
:1004900000FEFDFBF9F8F9FAFBFDFF000000010288
:1004A0000305080B0D0D0D0C09050200FEFBF9F804
:1004B000F8F8F9FAFDFEFFFF01020306080B0C0C29
:1004C0000C0B09050301FEFBF9F9F8F7F8F9FBFC41
:1004D000FCFE00010205080B0C0C0D0C09050301C4
:1004E000FDFAF9F9F8F8F8F9FAFBFBFCFE00010453
:1004F00007090B0D0E0D09060401FDFBF9F9F8F8CB
:10050000F8FAFBFBFBFDFEFF010306090B0D0E0CC9
:100510000A070401FDFCFBF7F5F7F7F7F9FDFEFE0E
:1005200001030507080B0C0B090501FFFEFCFCFE8F
:10053000FCF8F8F9F9FAFAF8FF0809070A0F100BA6
:10054000040201FEF8F6FAFFFFFDFDFDFAF8FA00DD
:10055000080E100E0B090702FCF9FAFCFCFD000462
:100560000501FCF7F6FA0007101717120C0700F840
:10057000F1EFF1F8FE02060A0901F8F7FE060D1583
:100580001B1B140B04FCF2EAE8EDF5FC02090D0953
:10059000FFFAFE050A111A1E1B140C04F9EEE8E717
:1005A000ECF2F900060600FAFD050C131B1E1C16E2
:1005B0001009FFF4EDEBEDF2F7FD0202FBF4F5FD9F
:1005C000060E1820201B130B03F8EFEBEDF4F9FDDA
:1005D0000305FFF5F1F6FE060F191D1B160F08FDAA
:1005E000F2EBEBF1F7FC030805FBF4F6FD030A144C
:1005F0001918130E0800F5EEECF1F6FA000706FEE6
:10060000F6F8FF0308111919120C0801F6EDE9EDCF
:10061000F4F9FF060801F7F6FD0308111A1C160E7F
:100620000700F6EBE6E9F0F6FB020703FAF7FD0335
:10063000060E191D18110B06FBEDE5E6ECF0F5FDB5
:100640000400F8F6FD04070E1B201A100C0900F236
:10065000E9E9EFF1F3F900FDF5F3FA0203071722D8
:100660001E120C0D06F7EBEBF2F4F3F7FEFDF5F2BC
:10067000F80102010F1F1E110A0D0CFEEEECF3F63D
:10068000F3F3F9FDFCF9FB0003FF05151A130C0C3D
:100690000B02F7F1F2F4F4F4F7F9FAF9FBFEFFFEBE
:1006A000FE07151A120D0F1005F7F1F4F4F0F0F42F
:1006B000F8F8F9FDFEFDFEFF05111A18130F0C05E1
:1006C000F9F1F0F2F3F2F3F6FBFCFAFBFFFDFB00AD
:1006D0000C181A130F0E09FFF6F4F5F5F3F4F7F9F9
:1006E000F9FAFBFBFAFAFE040D161A18141009FFAA
:1006F000F7F3F2F3F4F6F7FAFBFAF9FAFCFCFF066B
:100700000A111717130D0904FCF6F5F7F7F5F5F8BC
:10071000F9F8F9FAFDFF02060A0D0F0F0E0D080594
:100720000200FDFAF9F8F5F4F4F6FAFBFD00030710
:1007300007060706050608080806050300FCF8F783
:10074000F8F8F9FBFF0201010402000101020405AF
:1007500004050604010000FFFEFF0100000201FF86
:10076000FDFEFEFE00010302020201FFFF01010285
:10077000040605050502FF00FFFFFF0000FF010062
:10078000FEFEFEFDFF000104050606050402010051
:10079000010303000000FFFEFFFEFCFE0001040554
:1007A000030405020002020204030101010000FF2C
:1007B000FEFE010303040504020203020202020416
:1007C000040202010000FFFEFF0003040304030112
:1007D000010203010203020303010000FFFEFF0206
:1007E00003040402010100010000040303040100EA
:1007F00000FFFFFF000102040605030301010100E1
:1008000001020302010302FFFEFF000002040505CE
:100810000403030302020102020101010000FFFFC1
:10082000FEFE0001020304040503010303020202A9
:10083000020402FF00FFFD000000020101030302A9
:100840000202030302040403010101000100FF018D
:100850000101010202030202020404040504010270
:100860000201000101000102020201010303020270
:1008700003040404040302020202010101FF010156
:100880000002030102020304020203010204010048
:1008900001FF000100FF00FF000000020200020251
:1008A00001010202010201010301FF010000000039
:1008B0000002030101020202020302020303040216
:1008C0000204010001010203020303040403030400
:1008D00003020304040504030302020201010303EB
:1008E00003040303040303050404030204030203D3
:1008F00002010101020000000001000102010103E8
:10090000010204020202010202020202000001FFCF
:1009100000000000010202030203030302010202BD
:1009200001020302020101010000000000010202B5
:1009300002010102010001010102010102020101A3
:100940000000000102010202010200000201000198
:100950000202000101FF0001000000000000010090
:100960000001000102000001010202020101010177
:100970000102020202020202010102030204040354
:100980000303030202030303030302010201020340
:100990000101020202010101010202000101000243
:1009A00001FF0101FF0000FF0101FF0001FFFF0047
:1009B000FFFFFF00000000FFFF00FFFF0000FFFF40
:1009C00000FFFF00FFFF00FDFD00FFFFFFFEFEFE3A
:1009D000FDFDFEFEFFFFFFFEFDFDFDFDFCFDFFFE3C
:1009E000FCFEFEFCFDFCFCFDFDFDFDFCFDFEFEFD38
:1009F000FDFFFEFDFEFEFE00FFFEFEFFFFFEFDFE14
:100A0000FEFEFFFFFFFFFFFEFDFFFFFFFFFF0101F7
:100A100000FFFF00FFFFFFFF0001000101000000D9
:100A200000010201010203030101020000010102B1
:100A300001000001000101000101000101010001AC
:100A400001000100FF00FFFE0001FFFFFFFFFFFFAD
:100A500000FFFEFFFFFFFE0000FEFF00FDFEFEFDAB
:100A6000FCFDFEFEFFFEFDFEFEFDFEFEFEFFFFFFA7
:100A70000000FFFFFFFEFEFEFEFFFFFEFEFFFEFD8D
:100A8000FEFEFFFEFF0000000100FF00000000006E
:100A9000FFFF00FFFEFFFFFFFFFF01020202010256
:100AA00001FF0001FFFEFFFEFDFEFFFEFE0002054E
:100AB000080C0E0E09050301FBF8F5F2F1F5F9FA41
:100AC000FF070E171B120B0A02F8F6F8F7F7FBF9EF
:100AD000F0F0F7FA000914211E0F0806FAECEEF305
:100AE000F2F701FFF2F1FAFBFD0B1E271B0D08FDCB
:100AF000EDE6ECEEF2FE06FEF3F3F4F601132A2C1B
:100B0000180D06EFE0E4EAECFB0C0AFEF7F2EEF754
:100B1000061A2E2A150B01EADBE4ECF103110BFC9B
:100B2000F2EEF2FF11272E1F0E03EFDCDDEAF202D8
:100B3000161405F6E6E3F3061A3334190AFCE1D17C
:100B4000DEEFF70F2514FBF0DFD9F40E1E383E1D43
:100B500000F1DAC8D9F705192F19F3E3D6D2F1114C
:100B600020434F20F8EBD0BBD70211233E21E7D71B
:100B7000CFC5E9181F3E6632E9E2D4AFC90D212185
:100B80004133E3C5D3C6DA1B282D694DE3D0DEB768
:100B9000C014351A2C38E4B4DFDFD212311F4D4BAC
:100BA000E6C8F0E1D5123004FB12E9C8FB0BEB03F9
:100BB00024282807E3E4F30312170BF5E8E9F0FA19
:100BC0000A03EFF411332DFEEFF4EDFA130EFDFDE1
:100BD000F6EDF60101F6EDF60D343C04E6F4F1F520
:100BE0001115FFF8F6EFF40205F9EBF4092D3D0BB2
:100BF000E1F1F8F70D1907F7F4EFF2FC04FEEEF45B
:100C00000B293D13DFE8F8F90C1F12FBF0EDF1F7AB
:100C10000003F1EF08253B1FE8E4F6F9081B170075
:100C2000F1EDF1F80004F2E9011F392DF4E0F3FAD7
:100C300002171C07F0EBF2F9FD05FAE7F819343456
:100C400003E2F0FA00121A0AF1E8F1FAFC04FCE7F8
:100C5000F21430380EE5ECFA000D170EF6E7F0FC52
:100C6000FC01FFE8EC0F2F3A18EAE9F9000A14102A
:100C7000FAE7EDFCFD0000EBE8092C3C1FEFE8F77C
:100C8000FE081210FDE8EBFCFFFF01EEE502293D36
:100C900023F1E9F9FE07100DFCE8E9FC02FE00F281
:100CA000E3FA254026F2EBFBFD030D0CFDEAEAFB1F
:100CB0000200FFEFE3FB254129F2E7F9FE020D0FE9
:100CC00000E9E8FAFFFBFFF4E6FB254327ECE3FB32
:100CD00001020D1302E7E7FAFDFBFFF3E8FE2842ED
:100CE00024EAE0FA03040D1403E7E5F9FDF8FDF644
:100CF000E9FD294423E4DDFC05030B1403E5E4F8D6
:100D0000FEFAFCF4EC012B441EE0DCFE0A0609139B
:100D100003E2E1F801FCF9F2EF052F4418DCDDFEF7
:100D20000C06081104E4E1F902FBF4EFF30B36457D
:100D300010D7DF020D05050F02E5E3FA04FCEFEB27
:100D4000F8153A3F06D6E4070F04040DFEE4E6FB6F
:100D500005FEECE9FF203E31F5D6EE0D1003050946
:100D6000F6E1E7FE0AFDE9EC092E3E1AE5DDFA1090
:100D70000E030605F0E0EB0207F7EAF5163A380134
:100D8000D9E8091307000601ECE3F10706F0E901D1
:100D9000294123E8D8F91510FEFF06FBE8E4F90D18
:100DA00001E7EA143F3C03D7E50D1B06F60107F601
:100DB000E4E9010DF8E1F52B4D28E3D1F81E1AF90D
:100DC000F00207F3E2ED080BF1E305424D09CBD643
:100DD0000E2C12ECEB030AF1DEF10E0AEDE81A51CB
:100DE0003DECBFE2233408DFE3040FF4DCED0C0E2E
:100DF000F7F7264722DEC5EE2B3406D8D9FD10FDC5
:100E0000E6E9FF0C09122A2802E0DE002322FFDDBA
:100E1000DDF50500F3EEF706182D2C09E4DDF81AD0
:100E2000220DECDBE9FD03F9F0F3FE1026301BF593
:100E3000DDE306221F02E1D9EC0306F9EEF2031FFF
:100E4000382D03E1D9F0162819F3D6D8F20A09F79C
:100E5000EBF30D314020F0D5DBFD202D15E7CBD392
:100E6000F51212FDEBF1143E3F13E2CCDE062C33FB
:100E70000EDABECFFA1C1D05EDF21C3F3307DBCDA9
:100E8000E40D313006D3BBCDF91E2511FA001E2A20
:100E90001BFBDFDDF1132A1FF8D0C3D5FC1E271A78
:100EA0000F14140CFEF0EDF508181601E5D2D3E985
:100EB000071D211E211A08F5E9EDFA0C1A14FDE4AC
:100EC000D6D7E701161C1A232513FCE7E3F2091E07
:100ED0001D04E5D4D4E3FE161D191D241905EEE208
:100EE000EA001B220CEAD2D1E1FA121D191D241BC3
:100EF00008F1E3E8FD1A240DE7CED1E80211130E44
:100F00001529270FF1DCE2FC1F2B0DDEC4D0F20FF8
:100F10001507FC10363914E5CDE00B312DFCCABDA8
:100F2000DF0D1A06ECEE1D554900C4C3FD353B0B21
:100F3000CFC1E30C11F3DCEA1545501AD9D0F926DC
:100F400023FFE5E8FF00E6D0E10F25150A202B116D
:100F5000EBD9F41B250BE3DBEAF1EAE8FE16191ADC
:100F60002A20FEE7E903151206F4E9DFDAE7FE0CB2
:100F70000704234624E1D6FD1B0AF9090FF0C8CE69
:100F8000FA0BFAF5143F3E03E0F805F9F91723FAD6
:100F9000D8DAE7EBF1050E0E2B410FE0F306FBFB71
:100FA000181CF6E2E3DFE4F6050713363800EE021C
:100FB000F2F2111A06F9F7DDD6F0F3F50E1D2C3515
:100FC0000DF2F4EDFC131409FDF0DDE1F0EBF50D8D
:100FD00015303D0AF4F8E6FD150B0C08ECDAE5EAED
:100FE000EBFF080B2F3D0DFEF7DF0111071706EA97
:100FF000E4E1E5F2FC030A293D15FFF6E2000C07E7
:101000001605EEE9E3E5EBF4060E213A1903FDE3DC
:10101000FB08031606F5F1DEE2ECF10506173E21AA
:101020000604E3F507FF150AF9F7DDE2EEEBFF042E
:10103000103C280C0BE6EF04FB140FFBF8E1E5EF86
:10104000E8F9000A3330140DEEEC02FB0D0EFD0042
:10105000E9E3EEE5F1FF0427351A0EFBEFFDF6009C
:101060000E0305F2E3EBE5EDFD011831251407F25F
:10107000F5F8FB090504FAE8EDE8E6F4FD0D282D86
:10108000190FFDF3F9F600040102F3ECEBE5EFF9BB
:1010900003182C241708F4F7F8F801FF03FEEFED0E
:1010A000E9EAF5FD0C24291E14FEF5F7F4FCFD0118
:1010B00003F5EFEDEBF1F7FF162B251908F8FAF51C
:1010C000F5F9FA05FEF3F3ECEDF3FA0B22281F1302
:1010D00000FBF7F1F5F6FF04F9F5F0ECF2F7001577
:1010E00026241C0CFFFAF0F3F5F902FDFAF7EFEFF6
:1010F000F3FA0A1E24201707FEF3F1F5F3FC01FCB6
:10110000F8F3F2F2F4FE1323231E0F02F9F3F4F0C6
:10111000F3FEFFFCF8F3F0F0F90B1E211F16090196
:10112000F7F3F0EFF901FFFAF6F3F1F401151E20E1
:101130001B1008FDF4F2EEF2FDFFFCF9F6F2F2FBF3
:101140000C1A1E1C150F03F7F4F0EFF7FEFCF9F76D
:10115000F5F4F704131A1D1A140AFDF7F4EFF2FA66
:10116000FDFAF7F7F6F4FC0B171C1A161005FCF73E
:10117000F0EEF5FCFBF7F7F6F5F804101719181563
:101180000B00FBF6F0EFF6FBF9F6F7F5F5FD0B15A6
:101190001817151107FFFAF3EEF1F9FAF6F5F6F55F
:1011A000F90410161616140D04FFF8F0EEF5FAF710
:1011B000F4F5F5F7FE0912151415120A02FDF4ED07
:1011C000F0F8F8F4F3F5F6FA030D121315161006FD
:1011D00001FAF2EFF4F8F6F3F5F6F8FD060F131343
:1011E00016140D05FFF7F0F0F6F8F4F3F5F7FA0131
:1011F0000A10111417130A03FBF4F1F4F8F5F2F4D2
:10120000F7F9FD030B101318170E0600FBF5F2F6A5
:10121000F7F4F4F5F7F9FD050D111517130C060198
:10122000FCF4F3F7F6F4F4F4F5F8FE070E141918CD
:10123000120B0601F8F2F4F6F4F2F2F2F4FA030DEE
:1012400012171A17100A05FDF4F2F5F6F3F0F0F391
:10125000F8FF0911151A1B150D0702F8F2F3F5F343
:10126000F0F0F1F4FB040D13181B18120B05FEF53A
:10127000F1F3F4F2F0EFF1F700091015191A171055
:101280000903FAF2F1F3F3EFEDEFF5FD030C131898
:101290001B19140D07FFF6F1F0F1F0EEEEF2F9FF75
:1012A000070F15191A18130C05FBF2EFF0F1EEEC0D
:1012B000EFF5FC020A13161A1B18110901F7F1EEDB
:1012C000EEEEECECF0F8FF040E14181B1A160E07E5
:1012D000FDF4EEECEEECEAECF3FC010710171C1D3C
:1012E00019140C04F9F1ECEDEDEBECF0F6FD010650
:1012F00010161A1A17130C04FAF2EFF0F0EEEDF0D4
:10130000F6FC00040B15191A18150F06FEF5F1F07E
:10131000F1F0EDEEF3FB0002060D131515120E0AA7
:1013200003FEF8F6F6F4F1F0F2F7FBFD01050A1002
:10133000100E0C0A080602FFFDFAF8F5F3F6FAFDA6
:10134000FF01040605050505050608080704020057
:10135000FEFBFBFDFEFEFCFBFDFFFFFDFE0308099F
:10136000090A090806050301FFFEFCFAF8F8F9FB73
:10137000FCFF010406070605050606060400FFFE3D
:10138000FCFBFCFDFEFF010301FF01040503030458
:10139000040201FFFEFEFEFEFEFF01020201010447
:1013A00005030301010100FFFDFDFFFFFF00010533
:1013B0000504040203050301FDFCFEFBFBFDFE0327
:1013C000040405050605020100FFFEFBFAFCFDFE14
:1013D000FF00020407070404040401FDFDFDFFFEF5
:1013E000FCFCFCFF010202020305050302020101ED
:1013F0000100FEFDFEFDFCFDFEFF000104030204F2
:10140000040202020202FFFEFEFDFDFEFEFF0102DB
:101410000102020302010201FFFFFFFFFFFEFEFFC8
:10142000000103020203020201FFFFFFFEFEFEFEB7
:10143000FEFEFF0001030303040203020001FFFD9F
:10144000FEFE00FEFBFEFE00020304040304040291
:101450000100FFFFFEFEFFFEFDFF0101020303038B
:101460000302030301FFFEFEFEFEFDFEFFFF00017F
:1014700003030203030403010100FEFEFEFEFEFE61
:10148000FFFF00010203030404030302010100FF44
:10149000FEFEFFFF00000001020203030303FF0141
:1014A00002010200FE0101FF000000010101030230
:1014B0000102020100010100010101020001020319
:1014C00004020202000200FE01010001000002010C
:1014D00001010203030303020200000200FEFF00F9
:1014E00000000001010202020303030402010200E2
:1014F00000010100000000010101030202040201D9
:1015000003010002010203010101000001020203C4
:1015100002020302010201000102020100000001B7
:1015200001010102020201010102010101000202A6
:10153000FF0000000102000001FF0000FF010101A7
:1015400001FF000100000101010101010100FF0094
:10155000FF00010000010000010001010100010184
:101560000101FFFE0000FF0000000100000000017B
:101570000201000101010100000000000100010161
:1015800001000001010001010100FFFF0000000156
:1015900000FF00FFFF00000100FF00FFFF00FF0051
:1015A000FFFF00000000FF00000101000101010039
:1015B000FFFF00000000FF0001000000000000012C
:1015C000000001000000FFFFFFFF00FFFFFFFFFF23
:1015D000FFFF0100FF0000FF00FFFF00FFFFFFFF14
:1015E0000000FF0000FF010100FF00FF00000000FD
:1015F000FF00000000000102010101000101FFFFE6
:10160000FF000101010000010100000101010102D0
:10161000010101FF000101000000000000010000C5
:1016200001010101010101010101010101000000AD
:1016300000010101010101000000000101010000A1
:101640000000000000010101010100000000010193
:1016500000000000FF0000FF0000000201FF000189
:1016600000010200010100000100FF010100000073
:10167000FF000000FF0100000000FF0000FF01016B
:10168000000001010000010101010101020000014F
:10169000000100FF01010000000101010100010142
:1016A000FF0101000000FF0000FF00FFFF0000003D
:1016B00001010100000000000000FFFF000000FF2A
:1016C0000001000001020101010000010101000010
:1016D0000100000101000000000102010000010101
:1016E0000101000000FF00000001010001010001F4
:1016F00000000101010000020000020101010101DE
:101700000201010200000201FF01010001010001CC
:1017100001010101010102010102010000FE0001BD
:1017200000FFFF01000001000002010101010001B2
:101730000101000102010001010100FF00010000A0
:1017400002010101000202000000010100FF01028C
:101750000001010001010001000001000001000181
:101760000200FF0000010100010100FF0101000172
:101770000101010101000001010101000000000060
:101780000100000100FF0001000201FD0002000154
:1017900001000202000001000000FF010100010140
:1017A000010201010102020101000000FF0002002C
:1017B000000200000201010201FF0001010200FF1E
:1017C000010100000100000101010101010001010E
:1017D00001010101020201020201010202020301F0
:1017E0000102010201FF01020101010001020101E8
:1017F00001020302010201000001010100000203D5
:1018000002020102020102020202010101010000C2
:10181000010100000001000000000100FF010000C4
:1018200002010101000102010101000101000000AB
:10183000FFFF00FF0000FF000101020100010100A5
:101840000101000101000000000000000000010192
:10185000010101000101010100000201000101FF7D
:10186000010100010101010101010100000101006C
:101870000101010201010101010100000101010159
:10188000000001010100010001020201010101014A
:101890000100000000000001000001010101000141
:1018A0000100000000010100FFFF00000000010135
:1018B000010001010001010001000001010101001E
:1018C00001000102000101FF01020001020100010B
:1018D00001000001020201000101010102010102F7
:1018E000010100FF000101020100000100000201EE
:1018F000FF0000FF010000010101010000010100E3
:101900000101000101000101FF01010102010102C9
:1019100001000002010101000002020102030202B3
:1019200000FDFE02020202010202020202010100A7
:10193000010101010101020201020201020202038E
:101940000101010001010203020303030302020279
:1019500002020101020203030204020000FF01036C
:101960000405060503020200FFFFFEFE0003070850
:10197000060605020100FEFF01000102010001FE52
:10198000FCFCFCFE030A100E0E0E070301FBF7F62B
:10199000F3F1F1F3FB060E1716111008FFFCF7F236
:1019A000F4F5F3F7F9F6FA0106101A15101105FA15
:1019B000FAF1EDF4F4F5FCFDFAFCFF03101B17132C
:1019C0001305FAF8EEEAF1F3F6FF00FFFEFC020C55
:1019D0001416120F08FDF7F2EEF1F6FAFF0100FD02
:1019E000F7FB030C1716111005F9F7EEEBF3F6FCF5
:1019F000030202FDF5FC050C17150E0E01F6F4EBC3
:101A0000ECF5F901070302FBF2FB030A19160E10AD
:101A100001F5F4E9EAF7F9030A0203FCEDF7010521
:101A20001A1B101505F1F3E7E5F7F9051105050097
:101A3000EAEFFBFD152114180EF2F2E8DEF3F902CD
:101A4000170C0606EBE6F2F50C231F1D17FBEDE75E
:101A5000D9E8F70018180B0AF2E0E9F1011F292272
:101A60001D08ECE4DADEF50217231108F7DADCEAE8
:101A7000F91A34312513EFDAD5D2EC06182E2108E5
:101A8000FBDACDE0F1113942301CF7D2CBCADF08C6
:101A90001D35360EF9DDBDD0E8043552452501D19E
:101AA000BBC2D20028384724F0DBB9B8DEFD285588
:101AB0005F3607DEAFB4CFF02C444639F7CFBCAA6F
:101AC000D10021516B470BE0B0A6CDEF2952483E23
:101AD00002C0B8ABC605244C724F08DFB0A2D3F6E3
:101AE0002D5C4736FDB4B2B1CC0F2E4F7048FDD4FB
:101AF000ACA5DD06375F4124EDAAAFBDDC1C375332
:101B00006932E9CAA8B4F31644592E0ED4A3B9CE4B
:101B1000F52A3D585712D8C0ADD00A274B4417F4C8
:101B2000BBADCDE3102F405638F4CEBDBFF11C3510
:101B3000452802DBB4C3E1FC1D30444419E2CAC6A7
:101B4000DA0A2735300DEFCBC0DDF3092033402F03
:101B500000D9CFD3F41A272D18FAE1CAD9F0FE0F15
:101B600021343519EEDAD9E40A1F221D03EBD7D848
:101B7000EDFB041127322703E0DEE1F71A1D1B0BF2
:101B8000F2E0D5E7FC010A1D2D2D10E6DEE1EF168F
:101B9000211D12F3DFD5DFFB090A17292B17ECDA19
:101BA000E2EB10262015F7DFD1D8F9090D18252C06
:101BB0001DF0D7E0E60B2A251CFEDFD1D3EE080E80
:101BC00014273023FAD4D9E200292A2106E4D4CC00
:101BD000E7080C1223302B03D7D8DFF8252A200C76
:101BE000E8D6D2E504080A1F2F2E0EDED6DEF01C42
:101BF000291F0DEED6D1E8020909162D300EE2DAC2
:101C0000DFF11C251C0BEAD9D5EB07090513282D9C
:101C100010E3DDE4F21C241606E8D9D9EF0B0B0320
:101C200013272A0CE0DFE7F721251401E2D2D9F7C8
:101C3000110D0513292803DDE1E900272412FADC40
:101C4000D1DAFD180F04142825FDDCE4EA062A2069
:101C50000EF5D7D0DF03190D05162921F5DBE5ECCC
:101C60000E2E200CEDD4CFDF081B0C0B1E291AEA18
:101C7000D7E7F119331F07E6CCCEEA0D180B0C237A
:101C80002C13E3D8E7F520321E04E0CDD0ED121678
:101C90000810272C0EDDD8E9F926311A01DECAD446
:101CA000F6121105152E2C07D7D7E9002C3017FB9B
:101CB000DACAD7FD140A0519302DFED2DBE7073347
:101CC0002B14F9D5CBE2040F05011A352EFBD4DA1B
:101CD000E40A332813F6D6CFE5041100FC1E362D96
:101CE000FED4DAE60A31250EF3D9D5EA070BF9FC62
:101CF00020362CF9D4DEE70E322007EFD6D8F70FC6
:101D000009F3F61C362CF9D8E0E710301B03EAD5AE
:101D1000DBFB130AF2F71C3328F4D9E5ED18311771
:101D2000FDE4D5DD001A09F1FA1C3324ECD8E7F103
:101D3000203515FADFCEDE051B0AF3FF21321CE445
:101D4000D7E8F7283612F6DBCBE00B1A07F30428A6
:101D50003215DDD5E7FB2E3611F4D8CAE20C170395
:101D6000F50D2E310CD5D6E80135330CF1D6CAE885
:101D70001011FDF715342FFFD0D9E80B3A2B07ECE3
:101D8000D2CFF2140DF5F71C3730FACDD9E8103C5C
:101D90002804EBCFD0FB1309F5FA233927F0CFDD68
:101DA000EE19381EFFE6D1D9031400EFFE283C24BB
:101DB000E8CFDEF0223818FAE1CDDF0C15FFEDFE9A
:101DC00029391FE7D2E2F4243412F6DFD1E60D16EA
:101DD00000E9002B361DE5D1E4F927340EF0DCCF05
:101DE000E81516FDE9FE283720E4D1E4F82A360E7E
:101DF000EFDACEE7161BFEE8F9273823E9CCE1F746
:101E0000263A14F0DACBE2141D04E9F2243929F25F
:101E1000CADBF3203D1DF5DCCCD90D2107EDED1C0F
:101E20003B30FECBD5EF173D27FCE1CDD103210A96
:101E3000F0EA133C380BCFCDE70C3A3107E7D0CBB3
:101E4000F41E13F6E505393D1EDFC5DFFD2C3B16FC
:101E5000F1D8CAE11418F9E9FA2B422CF1C7D5EFF1
:101E60001C3B23FEE0CCD5001608F0EF1F3B310CE5
:101E7000D1CEE904313009EED7CCEF0F06FBEF0CE1
:101E80003A361BE5C9E0F8213618F7E1CFDD040B3F
:101E900000F6FC27382900D2D8EB0B2F2506EFDA05
:101EA000D3EF0804FFF911323118E6D3E3F71E2B04
:101EB00014FEE7D4DBF90805FE011F322903DADD41
:101EC000E904241E0DF8E2D6E0FE0402010C2C34D5
:101ED00019EDD9E0EF12221A0AF0DCD4E903060268
:101EE000FF17322E0FE6DDE1F2151D1809F1DDD6E0
:101EF000EDFCFE020C2A3A29FEDED8DDFF1C201D77
:101F000005EDD7D5ECF702091A36381DF0D7D4E322
:101F1000081C231D04ECD1D7E9F20511273F3B151E
:101F2000E6D3CFE5091D2D2309EBCACFDFF00A1A4E
:101F300032483C0CDFCCC7E30721362A12E9C5C979
:101F4000CFEA0C2140544309DBC2B7DA00254238FE
:101F500020EDC3BEBFDF062247645412E4BCA7CB0A
:101F6000EC1A45453804D4C1AFC7EC0D3B636C3661
:101F700003DAABB6C9E62036423507F1CEB9CBDD80
:101F8000022C4B50321DFFDAD3CDD2EE03101C1EB3
:101F90001505F7F8040906FEF8FF0808090704000C
:101FA000FDFCFBFBFE0000000100FEFEFCFBFDFF54
:101FB00002060A0D0C0C0900FAF7F4F3F8FE010111
:101FC0000200FEFDFDFD00070B0E0F0B04FDF7F4F4
:101FD000F6FBFDFDFEFF0001FFFEFE0105080907FF
:101FE0000605030000FFFBF8F5F5FBFE0002040800
:101FF000090702FFFF010507080501FBF7F8F9F8DB
:10200000FAFD03080704FFFDFE010408080703FEAC
:10201000FCFBF5EEEEF400080A07040504030504D2
:1020200005050301FCF7F2EDEEF4FB0106090A0ACF
:102030000A06040404040303FEF6F3EEEEF4FA01C8
:10204000080D0F0D0B0501020205040201F8F4F161
:10205000ECF0F4FD081018140F0A04060304030042
:1020600001F9F3EEE7EAEDF907121D1A18130D0C4A
:102070000301FEFBFDF5F0E9E6EAEEFA06151D1D8B
:102080001E17140C01FEF8FAF8F2EEE7E9EBF1FA8C
:1020900007171C23231D180A01F8F4F5EFEEEAEAEE
:1020A000EDEFF6FD0A161C24221F160A02F7F3EEC6
:1020B000E8E9E8ECEFF4F9000E171E221F1A130AE4
:1020C00002F9F2EBE8E7E8EBEFF4F9010F191F2151
:1020D0001D18120B02F9F2ECE9E9E9ECEDF0F5FF5D
:1020E0000E181F221F1C160D02F7EFE9E7E7E8ECB8
:1020F000EEF2F8010D151A1C1C1C181108FDF4EC69
:10210000E6E4E3E5EAF0FA040E16191B1B1A1610B2
:102110000901F9F1E9E4E0E0E5EBF6000B161A1D20
:102120001D19150F0903FCF5EDE7E2E1E4E8EFF80E
:10213000020F191E201E1A130B05FBF4EDE7E6E54E
:10214000E7EAEEF3FA06121A20211F1A1209FDF32C
:10215000EBE5E5E7E9EDEFF3F7FF0B151C20211F99
:10216000180E03F6EEE7E4E6E8EBEEF1F5FC0713F4
:102170001A1F23201B1106FAF0EAE6E6E9EBEDEF61
:10218000F3F9010E181E23221E1509FEF3ECE8E6F2
:10219000E7EAECEFF2F7FD07141C21241F180E02EA
:1021A000F8EFEAE8E7E9ECEFF3F6FAFF0A191F2483
:1021B000221B1307FEF4EDE9E7E9EAF0F3F7F8FB79
:1021C000020C1A1E201D161004FDF4EEEAE9ECEDD7
:1021D000F2F4F7FAFD030A181B1C1C141005FEF795
:1021E000F0EEEBEEEEF1F5F8FDFD02051019181B0F
:1021F00016110B01FCF3EFEBEBEEEEF6FAFFFFFF2F
:10220000030715161719120F05FDF6EEECE8EDF0B1
:10221000F5FE0003FF00020815141916100C00FA51
:10222000F1EAE9EAF3F5FD020203FCFEFF0A1513E9
:1022300019150F0AFCF7EDEBECEFF8F901030201B9
:10224000FAFEFE0B16131B120C07F9F7EEEEEFF277
:10225000FBFA03040100F8FDFF0D161219100C071C
:10226000FAF8EEEEEFF2FCFA040401FFF6FBFC0ACA
:1022700013101A120F0AFBF8ECECEEF1FCFB05064A
:1022800001FFF4F8F90714121E16100BF9F7EBE929
:10229000EDEFFEFD060A00FDF1F3F80518151F1A13
:1022A000100DF9F5EBE6EDEEFE00050AFEFDF2F38A
:1022B000FA0218161E1E110FFCF3EEE5EDECFA0003
:1022C000020D0301F7F0F8FC14181B23141204F498
:1022D000F0E1E5E8F204030F0C01FCEFF3F6071858
:1022E00017251E140DF4EFE3DFE9EC01060C1506CB
:1022F00001F2ECF2F914191F261411FFEEEBDCE4E5
:10230000EAF70C0A150F01FBE9EDF1001918262375
:102310001410F6ECE3DBE8EC010F0E1A0C00F4E30A
:10232000EBEF071B1B2B20150DF1EBDDDBE9EE0AB4
:1023300011131C07FEEEE0E9EC0A1C203223190BF6
:10234000EDE7D8D9E9F10F15191D06FBE6DBE5EB42
:102350000E212838271B07E8E1D2D7E9F514191C0C
:102360001F04F6E1D5E1EA0E262D3C2C1B07E6DC26
:10237000D0D3E7F4131D1E2108F5E1D2DCE60726D1
:102380002F3F351F0CE9D9CECCE1F00F2221260ECC
:10239000F6E3CED6DFFC2531423E2612EED7CDC77E
:1023A000DBED0824242819FBE9D1D0DBF01B323FF8
:1023B00046301AFCDCCEC4CFE6FD1F2A292508F0E2
:1023C000D8C9D2E0052D3D4A41250BE6CEC4C3DA7B
:1023D000F2102E2E2C1BF7E1C9C6D6EA183A464F4A
:1023E000391BFBD5C5BEC8E6FE2035302A0EECD51C
:1023F000C1C7DAF625424D4E3312F0CDC1BFCDED47
:10240000082738302509E6D0BFC7DCF928464F4EEB
:102410003411EFCDBEBECCED0A263B32250CE7D100
:10242000C0C3DBF3214550523B17F5D2BEBBC6E417
:10243000031F3A3B2B17F4D5C5BDCFE80A395156D7
:102440004C2903DEBFB7BCD2F61633443B2508E265
:10245000C8BCBFD6F41B465956441BF3D1B6B6C20E
:10246000DD05233D49391FFED7C0B7BFDAFA1F4843
:102470005A533F18EECFB8B9C8E208263A45381B80
:10248000FEDBC1BBC0D6F4123855534426FCDEC473
:10249000BAC6D7F919303F3F2A0BEDCDBCBCC7E215
:1024A000002048594F3D18EFD2BABAC7E007243C84
:1024B000463E23FEDFC1B5BBCBEC0D2F565C4C3442
:1024C00005E0C5B3BED0F2183245443514EBD1B89F
:1024D000B5C3D7FC183657524025F8DCC6BCCBDB59
:1024E000FC1B2E3D35270AE6D6C2C0D0DEFD132ADE
:1024F00048483B2601E7D2C5CED9F20F2133322816
:1025000018F5E2D2C4CFD7EC061A3A4A423415F491
:10251000DAC7C6D3E6031B2E382E2208E9DAC9CA69
:10252000D6E0FA10284242352002E9D6CDD4E4FAAA
:1025300012222D2C1D0FF8E1D8D2D8E5EE0112227F
:102540003132261501EEE2DEE2F0FE0D1A1E1D13F9
:1025500007FCEBE2E0E0E9EFF70411202B291E1065
:10256000FEF0E7E3E9F4000D1518170D03FAECE5AA
:10257000E3E5EDF2F904111F27271C0E00F2EBE84A
:10258000ECF7010B11121009FFF9F2EAEAEDF1F88C
:10259000FAFF08111C211E150BFFF6F0EEF0F6FDF8
:1025A00004090B0B0602FDF9F6F0F2F7F7FCFE004A
:1025B0000A10181D171007FCF5EEEDF1F6FF060ADC
:1025C0000C0A0602FDFAFBF7F9FCFBFEFCFBFF021E
:1025D0000A1113130D06FFF7F4F2F3F8FD030809CF
:1025E0000B090502FEFDFEFAFCFCF9F8F5F3F7FD18
:1025F0000610181B171005FAF3EDEDF1F8020A109A
:1026000014120E0801FBF5F3F1F0F6F8FD01FF01DD
:1026100001040A0C11110D0901FCF9F7F9FC01067E
:102620000809080400FCFAF9F9FCFF030400FFFCA8
:10263000F8F7F4F6FC030F171B1B1307FBF1EBEA8B
:10264000EFF7010B11130F0900F7F2F0F2F8FF0793
:102650000B0D0E06FEF9F0F0EFF1FA020D16191A45
:102660001306FCF2EDEDF1FA030B10100D0700F963
:10267000F5F4F6FA0006090A080500FCF8F5F7F982
:10268000FC000001020408090A090602FEFCFAFB2C
:10269000FDFF02020303010000FF00000103030429
:1026A000030100FEFCFCFCFDFF000303FF00FCF93E
:1026B000FAF5F7FBFE070D0F120F0903FDF7F6F60B
:1026C000F9FE020608070501FDFBFAFBFE020608FB
:1026D000080703FFFBF9FAFC00050809080501FCDF
:1026E000F8F4F4F6F9FF01050606090A09090604DB
:1026F00001FEFEFEFE00010304030301FFFEFDFDDB
:10270000FEFF02040506040301FFFDFDFE000204B6
:102710000606060401FFFCFBFBFCFF02040707079B
:102720000502FFFDFBFBFDFF0205030403FFFEFBAB
:10273000F9FBFC0206080B0A070501FDFCFAFBFD8C
:10274000FF0304040503020100000000020202026C
:102750000100FFFEFF0001020203020100FFFEFF75
:10276000FF00010202020202010102020202020251
:102770000101000000000001010202020100FFFF50
:10278000FFFF000102030303020100FFFFFF00013E
:1027900001020202020100FFFEFEFEFEFF00010236
:1027A000000100FEFFFDFE00000405050603020017
:1027B000FDFDFDFDFF000103020302010100000118
:1027C000010203030202010000FFFF0001020202F6
:1027D0000202010000FFFF000001020203030202E7
:1027E00001010000000101020202020202010100D7
:1027F000000102020303030302020100FFFFFF00C6
:102800000102030303020100FFFFFF0001010202B6
:1028100002020100FFFFFFFFFF00010202030302AB
:102820000201000000000001020202010100FFFF9E
:10283000FF00010202030302020101010101010282
:10284000030303030302010100FFFF000000010175
:102850000202020202010100000001010202020262
:102860000201010000000000000102020203030255
:10287000020100000000000102020303020100FF48
:10288000FFFFFF000102030303020101000000003B
:102890000102020202020101000000000001030324
:1028A0000202020201010001000001010101010117
:1028B0000000010101020202020202020201010102
:1028C00001010000000101010101010101010101FB
:1028D00001010101010101010101010101000000EB
:1028E00000000000000001010101000001010101E0
:1028F00001010000000000000000010100000000D4
:10290000FFFFFFFF00000101010101000000FF00C7
:1029100000000001010101000000000000000000B3
:1029200000000000000000000001010101010101A0
:102930000000000000000000010101010000000093
:102940000000000101010100000000000000000083
:10295000000101010101000000000000000101016F
:10296000010000FFFFFF000001010101010000FF65
:10297000FFFF00000101020201010000FFFF000053
:102980000101010201010100000000010102020237
:10299000020101000000000001010101010000002E
:1029A000000000000101020201010100000000001E
:1029B0000101010101010000FFFF0000000101020F
:1029C0000201010101000000000024272A00002567
:1029D000282B000023262904040404040404040210
:1029E00002020202020303030303030102040810AC
:1029F0002040800102040810200102040810200079
:102A000000000700020100000304060000000000AF
:102A10000000000011241FBECFEFD4E0DEBFCDBF09
:102A200011E0A0E0B1E0E8E2FFE202C005900D9203
:102A3000A430B107D9F711E0A4E0B1E001C01D92C4
:102A4000AB30B107E1F70E9403160C9493170C9476
:102A50000000EFE6F0E080818D7F8083E1E8F0E028
:102A600080818E7F8083E1EBF0E080818E7F8083A8
:102A700060E0809102010E94261708951F920F9234
:102A80000FB60F9211242F933F934F935F936F9341
:102A90007F938F939F93AF93BF93EF93FF93809117
:102AA00004019091050180569942C8F020910401DB
:102AB0003091050140910601842F9927805A964D47
:102AC0002817390719F40E94291512C080910401B2
:102AD00090910501405A481B4093B30009C0E09112
:102AE0000401F0910501E859FF4FE491E093B30030
:102AF00080910401909105010196909305018093C6
:102B00000401FF91EF91BF91AF919F918F917F91C0
:102B10006F915F914F913F912F910F900FBE0F904A
:102B20001F90189561E0809102010E94BC16E6EBAF
:102B3000F0E080818F798083E0EBF0E0808183603A
:102B40008083A1EBB0E08C91877F8C9380818F7321
:102B50008068808380818F7C80838C91887F816076
:102B60008C93E8E6F0E0E491E093B300F894A1E8F8
:102B7000B0E08C91877E88608C93E0E8F0E0808103
:102B80008C7F80838C91887F81608C938DEE98E020
:102B90009093890080938800EFE6F0E08081826066
:102BA0008083E7ECF9E2E491E093060110920501DD
:102BB00010920401789408950DC061E080910001A5
:102BC0000E9426170E94921564EC79E080E090E064
:102BD0000E944B1683E00E94DA16019771F360E0C1
:102BE000809100010E9426170E942915089561E036
:102BF000809100010E94BC1660E083E00E94BC1638
:102C00000E9492150895CFEFD4E0DEBFCDBF0E94A1
:102C10007A160E94F7150E94DC15FDCF1F920F92C5
:102C20000FB60F9211248F939F93AF93BF93809110
:102C3000070190910801A0910901B0910A01019644
:102C4000A11DB11D8093070190930801A093090174
:102C5000B0930A01BF91AF919F918F910F900FBEDA
:102C60000F901F9018956091070170910801809155
:102C7000090190910A0127E0660F771F881F991FAD
:102C80002A95D1F72DE730E040E050E00E9471171F
:102C9000CA01B9010895AF92BF92CF92DF92EF922D
:102CA000FF920F931F935B016C010E9433167B010F
:102CB0008C010E9433166E197F09800B910B6A15E7
:102CC0007B058C059D05A8F31F910F91FF90EF9058
:102CD000DF90CF90BF90AF900895019751F0880F8B
:102CE000991F880F991F02972FB7F8940197F1F752
:102CF0002FBF089578941092070110920801109246
:102D0000090110920A0184B5826084BD84B5816096
:102D100084BD85B5826085BD85B5816085BDEEE6E3
:102D2000F0E0808181608083E1E8F0E08081826072
:102D30008083808181608083E0E8F0E08081816031
:102D40008083E1EBF0E0808184608083E0EBF0E061
:102D5000808181608083EAE7F0E080818460808305
:102D600080818260808380818160808380818068AF
:102D700080831092C1000895282F3327C9018551FF
:102D8000964DFC0194912952364DF9018491882386
:102D900081F0E82FFF27E853F64DE491FF276623E3
:102DA00029F4808190958923808308958081892BDF
:102DB00080830895482F5527CA018150964DFC0104
:102DC0002491CA018551964DFC0194914952564D6A
:102DD000FA013491332319F480E090E0089522231E
:102DE00031F1233021F4809180008F7705C02430A9
:102DF00031F4809180008F7D8093800018C0213055
:102E000019F484B58F7704C0223021F484B58F7D06
:102E100084BD0DC0263021F48091B0008F7705C0AD
:102E2000273029F48091B0008F7D8093B000E32F8C
:102E3000FF27EE52F64DE491FF27808120E030E03D
:102E4000892311F021E030E0C9010895482F55276A
:102E5000CA018150964DFC012491CA018551964DBD
:102E6000FC0194914952564DFA0134913323C1F13A
:102E7000222331F1233021F4809180008F7705C027
:102E8000243031F4809180008F7D8093800018C0C1
:102E9000213019F484B58F7704C0223021F484B531
:102EA0008F7D84BD0DC0263021F48091B0008F77D6
:102EB00005C0273029F48091B0008F7D8093B00049
:102EC000E32FFF27E353F64DE491FF27662329F410
:102ED000808190958923808308958081892B8083C8
:102EE0000895A1E21A2EAA1BBB1BFD010DC0AA1F4B
:102EF000BB1FEE1FFF1FA217B307E407F50720F063
:102F0000A21BB30BE40BF50B661F771F881F991FDD
:102F10001A9469F760957095809590959B01AC0126
:082F2000BD01CF010895FFCFB0
:042F28000D000B008D
:00000001FF
