:1000000013C037C036C035C034C033C032C031C071
:1000100030C09AC02EC03FC22CC02BC02AC029C0FD
:1000200028C027C026C0E20111241FBECFE5D4E0BE
:10003000DEBFCDBF10E0A0E6B0E0E8E7F7E002C029
:1000400005900D92A036B107D9F710E0A0E6B0E018
:1000500001C01D92AA3EB107E1F710E0C8E2D0E06E
:1000600003C02297FE0183D3C632D107D1F764D0F3
:1000700082C3C6CF8F929F92AF92BF92CF92DF92F0
:10008000EF92FF920F931F93E62EA42E992787FDE0
:100090009095A92FB92F21E6822E20E0922E20E004
:1000A00030E0AC01BD01C4014FD1FF24E7FCF09466
:1000B0000F2D1F2D20E030E0B801A701C40144D16D
:1000C000BB24A7FCB094CB2CDB2C20E030E0B601A5
:1000D000A501C40139D11F910F91FF90EF90DF90DE
:1000E000CF90BF90AF909F908F9008958EE115C0F4
:1000F00045E480E9BFDF64E670E080E090E060D036
:1001000040E06091600080E9B5DF64E670E080E087
:1001100090E056D0809160008F5F80936000609186
:1001200060006A352CF3089542E15AE760E070E020
:1001300081E690E042D10895CFE5D4E0DEBFCDBFA7
:100140006CD0F2DFD3DFFECF1F920F920FB60F926B
:1001500011248F939F93AF93BF93809166009091EA
:100160006700A0916800B09169000196A11DB11DC2
:100170008093660090936700A0936800B093690035
:10018000BF91AF919F918F910F900FBE0F901F90D5
:100190001895609166007091670080916800909159
:1001A000690027E0660F771F881F991F2A95D1F7EE
:1001B0002DE730E040E050E087D2CA01B901089550
:1001C000AF92BF92CF92DF92EF92FF920F931F9365
:1001D0005B016C01DEDF7B018C01DBDF6E197F09C7
:1001E000800B910B6A157B058C059D05B0F31F9163
:1001F0000F91FF90EF90DF90CF90BF90AF90089558
:10020000019751F0880F991F880F991F02972FB7F8
:10021000F8940197F1F72FBF089578941092660033
:1002200010926700109268001092690083B7826094
:1002300083BF83B7816083BF89B7816089BF8EB573
:1002400082608EBD8EB581608EBD8FB581608FBDA1
:1002500085B5846085BD85B5806485BD329A319A47
:10026000309A379A1AB8089508950895CB01BA01C3
:100270003327442755274FD108952AE0F7DF089503
:10028000AB0166277727F9DF0895862F40D10895BF
:10029000862F3DD108950F931F938C016DE0F8DFF9
:1002A0006AE0C801F5DF1F910F9108950F931F9326
:1002B0008C01E3DFC801EFDF1F910F9108950F93C9
:1002C0001F938C01DDDFC801E6DF1F910F910895B8
:1002D0000F931F938C01D9DFC801DDDF1F910F91B0
:1002E00008950F931F938C01D3DFC801D4DF1F91B2
:1002F0000F910895EF92FF920F931F93CF93DF9387
:10030000EC017A018B0177FF0AC06DE2C1DF109525
:100310000095F094E094E11CF11C011D111D2AE0F0
:10032000B801A701CE01A2DFDF91CF911F910F91FC
:10033000FF90EF9008950F931F938C01DBDFC801AE
:10034000AADF1F910F9108952115310519F4642F2B
:100350009FDF08952A30310511F4CCDF089586DF40
:1003600008950F931F938C01EFDFC80194DF1F9155
:100370000F910895AB01662757FD6095762FBADF80
:1003800008950F931F938C01F5DFC80184DF1F913F
:100390000F910895CB017BD108950F931F938C018A
:1003A000F9DFC80178DF1F910F9108956BD0089590
:1003B0004BD0089539D099270895CB01BA0103D0C5
:1003C000089508950895EF92FF920F931F937B0174
:1003D0008C0122E030E040E050E098D1205C3D4BC1
:1003E000404F5F4FCA01B901A80197018FD1215039
:1003F000304040405040BB2757FDBA95A52F942F61
:10040000832F2F5F3F4F4F4F5F4F80BD215029B942
:10041000549A539A579A1F910F91FF90EF90089515
:100420005D9BFECF8CB9089580916200909163002E
:1004300080589F4F2091640030916500821B930B80
:1004400060E870E02ED108954091640050916500FD
:1004500080916200909163008417950719F48FEFE3
:100460009FEF0895FA01E659FF4F2081CA010196D6
:1004700060E870E016D19093650080936400822F4D
:10048000992708958091640090916500909363008E
:100490008093620008951F920F920FB60F9211245D
:1004A0002F933F934F935F936F937F938F939F937C
:1004B000AF93BF93EF93FF934CB1E0916200F09143
:1004C0006300CF01019660E870E0EBD09C01809161
:1004D0006400909165002817390739F0E659FF4FFD
:1004E00040833093630020936200FF91EF91BF91AE
:1004F000AF919F918F917F916F915F914F913F91BC
:100500002F910F900FBE0F901F90189508955D9B2F
:10051000FECF8CB908952F923F924F925F926F92C7
:100520007F928F929F92AF92BF92CF92DF92EF9283
:10053000FF920F931F93CF93DF93CDB7DEB7A097B2
:100540000FB6F894DEBF0FBECDBF6B017C01290151
:100550003A01611571058105910529F45D9BFECF76
:1005600080E38CB944C08824992454011E01089466
:10057000211C311C8101080D191DC701B601A30101
:100580009201A2D0F80160830894811C911CA11CE7
:10059000B11CC701B601A301920196D069017A018D
:1005A000211531054105510529F708948108910865
:1005B000A108B108F101E80DF91D0894811C911CF6
:1005C000A11CB11C0FC0089481089108A108B108B2
:1005D00080818A3010F4805D01C0895C5D9BFECF14
:1005E0008CB9319781149104A104B10461F7A096EC
:1005F0000FB6F894DEBF0FBECDBFDF91CF911F9134
:100600000F91FF90EF90DF90CF90BF90AF909F90B1
:100610008F907F906F905F904F903F902F900895B4
:1006200020E130E040E050E076DF089528E030E05F
:1006300040E050E070DF089522E030E040E050E01C
:100640006ADF08955D9BFECF8AE08CB90895EF9232
:10065000FF920F931F937B018C0197FF0CC05D9B52
:10066000FECF8DE28CB910950095F094E094E11CDA
:10067000F11C011D111D2AE030E040E050E0C801EE
:10068000B70149DF1F910F91FF90EF900895FC0192
:1006900004C05D9BFECF31968CB980818823C9F759
:1006A000089597FB092E07260AD077FD04D049D07C
:1006B00006D000201AF4709561957F4F0895F6F7E3
:1006C000909581959F4F0895A1E21A2EAA1BBB1BFE
:1006D000FD010DC0AA1FBB1FEE1FFF1FA217B3070E
:1006E000E407F50720F0A21BB30BE40BF50B661F24
:1006F000771F881F991F1A9469F7609570958095E8
:1007000090959B01AC01BD01CF01089597FB092E87
:1007100005260ED057FD04D0D7DF0AD0001C38F4D0
:1007200050954095309521953F4F4F4F5F4F08951D
:10073000F6F790958095709561957F4F8F4F9F4FFD
:100740000895AA1BBB1B51E107C0AA1FBB1FA61718
:10075000B70710F0A61BB70B881F991F5A95A9F76A
:1007600080959095BC01CD010895EE0FFF1F059077
:08077000F491E02D0994FFCF84
:00000001FF
