:1000000038C052C051C050C04FC04EC04DC04CC08F
:100010004BC0B3C049C048C047C046C045C044C03B
:1000200043C042C041C0000037343100003835328F
:100030000000363330040404040404040402020201
:100040000202020303030303030102040810204019
:1000500080010204081020010204081020000000A2
:100060000000000000000304050000000000000084
:10007000000011241FBECFE5D4E0DEBFCDBF10E0ED
:10008000A0E6B0E0E2EFF3E002C005900D92A636E4
:10009000B107D9F710E0A6E6B0E001C01D92AA367C
:1000A000B107E1F762D0A4C1ABCF61E080916000FD
:1000B00048D161E08091620044D161E080916400A8
:1000C00040D164EF71E080E090E093D060E08091F7
:1000D000600037D164EF71E080E090E08AD060E0AA
:1000E000809162002ED161E0809164002AD161E0AC
:1000F0008091600026D16AEF70E080E090E079D0D6
:1001000060E0809160001DD160E08091640019D1B1
:1001100064EF71E080E090E06CD061E0809160007D
:1001200010D161E0809162000CD164E670E080E063
:1001300090E05FD060E08091600003D160E080914A
:100140006200FFD064E670E080E090E052D0089555
:1001500061E080916000A1D061E0809162009DD05B
:1001600061E08091640099D00895CFE5D4E0DEBFCE
:10017000CDBF6CD0EDDF99DFFECF1F920F920FB68F
:100180000F9211248F939F93AF93BF93809166003A
:1001900090916700A0916800B09169000196A11D3F
:1001A000B11D8093660090936700A0936800B093A0
:1001B0006900BF91AF919F918F910F900FBE0F90EB
:1001C0001F9018956091660070916700809168009B
:1001D0009091690027E0660F771F881F991F2A9565
:1001E000D1F72DE730E040E050E0E0D0CA01B9019E
:1001F0000895AF92BF92CF92DF92EF92FF920F934A
:100200001F935B016C01DEDF7B018C01DBDF6E196C
:100210007F09800B910B6A157B058C059D05B0F35A
:100220001F910F91FF90EF90DF90CF90BF90AF9014
:100230000895019751F0880F991F880F991F029711
:100240002FB7F8940197F1F72FBF08957894109283
:10025000660010926700109268001092690083B7E0
:10026000826083BF83B7816083BF89B7816089BFA4
:100270008EB582608EBD8EB581608EBD8FB581607A
:100280008FBD85B5846085BD85B5806485BD329A96
:10029000319A309A379A1AB80895282F3327C9010E
:1002A000875B9F4FFC0194912B5C3F4FF901849138
:1002B000882381F0E82FFF27EA5DFF4FE491FF27B5
:1002C000662329F480819095892380830895808115
:1002D000892B80830895482F5527CA01835A9F4F41
:1002E000FC012491CA01875B9F4FFC0194914B5CF8
:1002F0005F4FFA013491332319F480E090E00895C0
:10030000222381F0233019F48FB58F7704C0243075
:1003100021F48FB58F7D8FBD05C0253019F485B5CB
:100320008F7D85BDE32FFF27E05DFF4FE491FF2721
:10033000808120E030E0892311F021E030E0C90124
:100340000895482F5527CA01835A9F4FFC012491D5
:10035000CA01875B9F4FFC0194914B5C5F4FFA0190
:100360003491332311F1222381F0233019F48FB516
:100370008F7704C0243021F48FB58F7D8FBD05C0E9
:10038000253019F485B58F7D85BDE32FFF27E55D09
:10039000FF4FE491FF27662329F4808190958923FC
:1003A000808308958081892B80830895A1E21A2E8D
:1003B000AA1BBB1BFD010DC0AA1FBB1FEE1FFF1F09
:1003C000A217B307E407F50720F0A21BB30BE40B59
:1003D000F50B661F771F881F991F1A9469F76095A0
:1003E0007095809590959B01AC01BD01CF0108955A
:0203F000FFCF3D
:0603F200020005000700F7
:00000001FF
