:1000000038C052C051C050C04FC04EC04DC04CC08F
:100010004BC0E3C049C048C047C046C045C044C00B
:1000200043C042C041C0000037343100003835328F
:100030000000363330040404040404040402020201
:100040000202020303030303030102040810204019
:1000500080010204081020010204081020000000A2
:100060000000000000000304050000000000000084
:10007000000011241FBECFE5D4E0DEBFCDBF10E0ED
:10008000A0E6B0E0E0EEF4E002C005900D92A836E4
:10009000B107D9F710E0A8E6B0E001C01D92AD3677
:1000A000B107E1F792D01BC2ABCF61E08091600055
:1000B00024D10895BF92CF92DF92EF92FF920F93D7
:1000C0001F93CF93DF938C017B01D42EC62E61E06A
:1000D0008E2D13D1B02E61E0802F0FD160E0802FE4
:1000E00060D160E08E2D5DD1C7E0D0E00D2D1127ED
:1000F00060E08C2D56D1B8010C2E02C07595679525
:100100000A94E2F7617070708B2D4BD161E08C2DF9
:1001100048D160E08B2D45D121978FEFCF3FD80795
:1001200039F760E08C2D3DD1DF91CF911F910F9178
:10013000FF90EF90DF90CF90BF90089541E050E0A6
:1001400020E030E004C0440F551F2F5F3F4F2817B9
:100150003907CCF360916200709163008091640074
:1001600090916500A7DF089541E050E002C0440F80
:10017000551F8A95E2F7609162007091630080914B
:1001800064009091650096DF0895CF93DF93C0E0FF
:10019000D0E060E08091600004D1CE01E5DFCE01C7
:1001A000E3DF61E080916000FCD085E032D1AA27D6
:1001B00097FDA095BA2FBC01CD014BD02196C83038
:1001C000D10539F7DF91CF910895CFE5D4E0DEBFB7
:1001D000CDBF6CD06ADFD9DFFECF1F920F920FB672
:1001E0000F9211248F939F93AF93BF9380916900D7
:1001F00090916A00A0916B00B0916C000196A11DD6
:10020000B11D8093690090936A00A0936B00B09336
:100210006C00BF91AF919F918F910F900FBE0F9087
:100220001F9018956091690070916A0080916B0031
:1002300090916C0027E0660F771F881F991F2A9501
:10024000D1F72DE730E040E050E027D1CA01B901F5
:100250000895AF92BF92CF92DF92EF92FF920F93E9
:100260001F935B016C01DEDF7B018C01DBDF6E190C
:100270007F09800B910B6A157B058C059D05B0F3FA
:100280001F910F91FF90EF90DF90CF90BF90AF90B4
:100290000895019751F0880F991F880F991F0297B1
:1002A0002FB7F8940197F1F72FBF08957894109223
:1002B000690010926A0010926B0010926C0083B774
:1002C000826083BF83B7816083BF89B7816089BF44
:1002D0008EB582608EBD8EB581608EBD8FB581601A
:1002E0008FBD85B5846085BD85B5806485BD329A36
:1002F000319A309A379A1AB80895282F3327C901AE
:10030000875B9F4FFC0194912B5C3F4FF9018491D7
:10031000882381F0E82FFF27EA5DFF4FE491FF2754
:10032000662329F4808190958923808308958081B4
:10033000892B80830895482F5527CA01835A9F4FE0
:10034000FC012491CA01875B9F4FFC0194914B5C97
:100350005F4FFA013491332319F480E090E008955F
:10036000222381F0233019F48FB58F7704C0243015
:1003700021F48FB58F7D8FBD05C0253019F485B56B
:100380008F7D85BDE32FFF27E05DFF4FE491FF27C1
:10039000808120E030E0892311F021E030E0C901C4
:1003A0000895482F5527CA01835A9F4FFC01249175
:1003B000CA01875B9F4FFC0194914B5C5F4FFA0130
:1003C0003491332311F1222381F0233019F48FB5B6
:1003D0008F7704C0243021F48FB58F7D8FBD05C089
:1003E000253019F485B58F7D85BDE32FFF27E55DA9
:1003F000FF4FE491FF27662329F48081909589239C
:10040000808308958081892B80830895809366007E
:1004100008958F70909166009295990F990F907C36
:10042000982B97B9369A3699FECF24B185B1992782
:10043000982F88273327822B932B08951F93CF93D0
:10044000DF93182FEB0161E058DFE12FFF27E35A1C
:10045000FF4F8491833031F48FB580688FBDDBBD51
:10046000CABD17C0843031F48FB580628FBDD9BD4D
:10047000C8BD0FC0853029F485B5806285BDC3BD78
:1004800008C0C038D10514F460E001C061E0812FDC
:1004900088DFDF91CF911F910895A1E21A2EAA1B48
:1004A000BB1BFD010DC0AA1FBB1FEE1FFF1FA21724
:1004B000B307E407F50720F0A21BB30BE40BF50B21
:1004C000661F771F881F991F1A9469F760957095AA
:1004D000809590959B01AC01BD01CF010895FFCFA0
:0804E00008000C000B000100F4
:00000001FF
