:1000000039C05DC05CC05BC05AC059C058C057C041
:1000100056C0EBC054C060C352C051C050C04FC0A6
:100020004EC04DC04CC0000037343100003835326E
:100030000000363330040404040404040402020201
:100040000202020303030303030102040810204019
:1000500080010204081020010204081020000000A2
:100060000000000000000304050000000000000084
:100070000000BC0211241FBECFE5D4E0DEBFCDBF1F
:1000800010E0A0E6B0E0EAEBF9E002C005900D92C6
:10009000A236B107D9F710E0A2E6B0E001C01D9288
:1000A000A63FB107E1F710E0C4E7D0E003C0229714
:1000B000FE017ED4C237D107D1F78FD07DC4A0CF47
:1000C0000F931F93CF93DF938C01C0E0D0E011C05A
:1000D00061E08DE06ED164E670E080E090E0C1D038
:1000E00060E08DE066D164E670E080E090E0B9D039
:1000F0002196C017D10764F3DF91CF911F910F9123
:1001000008958F929F92AF92BF92CF92DF92EF921B
:10011000FF920F931F93E62EA42E992787FD9095AB
:10012000A92FB92F2DE6822E20E0922E20E030E07C
:10013000AC01BD01C401E2D1FF24E7FCF0940F2D16
:100140001F2D20E030E0B801A701C401D7D1BB24A6
:10015000A7FCB094CB2CDB2C20E030E0B601A5014D
:10016000C401CCD11F910F91FF90EF90DF90CF9001
:10017000BF90AF909F908F90089580E001D29093B0
:1001800064008093630068E070E0ACD36093620029
:10019000862F992790936C0080936B0040E480E950
:1001A000B0DF64E670E080E090E05BD040E060911A
:1001B0006B0080E9A6DF089560E08AE0A6D061E0E8
:1001C0008DE0A3D042E15AE760E070E08DE690E078
:1001D000CED183E090E074DF0895CFE5D4E0DEBFB8
:1001E000CDBF6CD0E9DFC9DFFECF1F920F920FB6F3
:1001F0000F9211248F939F93AF93BF9380917200BE
:1002000090917300A0917400B09175000196A11DAA
:10021000B11D8093720090937300A0937400B0930B
:100220007500BF91AF919F918F910F900FBE0F906E
:100230001F90189560917200709173008091740006
:100240009091750027E0660F771F881F991F2A95E8
:10025000D1F72DE730E040E050E057D3CA01B901B3
:100260000895AF92BF92CF92DF92EF92FF920F93D9
:100270001F935B016C01DEDF7B018C01DBDF6E19FC
:100280007F09800B910B6A157B058C059D05B0F3EA
:100290001F910F91FF90EF90DF90CF90BF90AF90A4
:1002A0000895019751F0880F991F880F991F0297A1
:1002B0002FB7F8940197F1F72FBF08957894109213
:1002C000720010927300109274001092750083B740
:1002D000826083BF83B7816083BF89B7816089BF34
:1002E0008EB582608EBD8EB581608EBD8FB581600A
:1002F0008FBD85B5846085BD85B5806485BD329A26
:10030000319A309A379A1AB80895282F3327C9019D
:10031000875B9F4FFC0194912B5C3F4FF9018491C7
:10032000882381F0E82FFF27EA5DFF4FE491FF2744
:10033000662329F4808190958923808308958081A4
:10034000892B80830895482F5527CA01835A9F4FD0
:10035000FC012491CA01875B9F4FFC0194914B5C87
:100360005F4FFA013491332319F480E090E008954F
:10037000222381F0233019F48FB58F7704C0243005
:1003800021F48FB58F7D8FBD05C0253019F485B55B
:100390008F7D85BDE32FFF27E05DFF4FE491FF27B1
:1003A000808120E030E0892311F021E030E0C901B4
:1003B0000895482F5527CA01835A9F4FFC01249165
:1003C000CA01875B9F4FFC0194914B5C5F4FFA0120
:1003D0003491332311F1222381F0233019F48FB5A6
:1003E0008F7704C0243021F48FB58F7D8FBD05C079
:1003F000253019F485B58F7D85BDE32FFF27E55D99
:10040000FF4FE491FF27662329F48081909589238B
:10041000808308958081892B8083089508950895AD
:10042000CB01BA0133274427552796D108952AE0F6
:10043000F7DF0895AB0166277727F9DF0895862F48
:1004400087D10895862F84D108950F931F938C012F
:100450006DE0F8DF6AE0C801F5DF1F910F910895A4
:100460000F931F938C01E3DFC801EFDF1F910F9102
:1004700008950F931F938C01DDDFC801E6DF1F9104
:100480000F9108950F931F938C01D9DFC801DDDF11
:100490001F910F9108950F931F938C01D3DFC80113
:1004A000D4DF1F910F910895EF92FF920F931F9346
:1004B000CF93DF93EC017A018B0177FF0AC06DE2E5
:1004C000C1DF10950095F094E094E11CF11C011D32
:1004D000111D2AE0B801A701CE01A2DFDF91CF9163
:1004E0001F910F91FF90EF9008950F931F938C0130
:1004F000DBDFC801AADF1F910F9108952115310597
:1005000019F4642F9FDF08952A30310511F4CCDFF0
:10051000089586DF08950F931F938C01EFDFC801C4
:1005200094DF1F910F910895AB01662757FD6095E9
:10053000762FBADF08950F931F938C01F5DFC80162
:1005400084DF1F910F910895CB01C2D108950F93BD
:100550001F938C01F9DFC80178DF1F910F91089577
:10056000B2D0089592D0089580D099270895CB01F4
:10057000BA014AD0089508950895809360000895BF
:100580008F70909160009295990F990F907C982BA5
:1005900097B9369A3699FECF24B185B19927982F0D
:1005A00088273327822B932B08951F93CF93DF93B4
:1005B000182FEB0161E0A9DEE12FFF27E35AFF4F7F
:1005C0008491833031F48FB580688FBDDBBDCABDA7
:1005D00017C0843031F48FB580628FBDD9BDC8BDDE
:1005E0000FC0853029F485B5806285BDC3BD08C0C4
:1005F000C038D10514F460E001C061E0812FD9DE7C
:10060000DF91CF911F910895EF92FF920F931F9367
:100610007B018C0122E030E040E050E098D1205C8A
:100620003D4B404F5F4FCA01B901A80197018FD1DF
:100630002150304040405040BB2757FDBA95A52F70
:10064000942F832F2F5F3F4F4F4F5F4F80BD21501F
:1006500029B9549A539A579A1F910F91FF90EF908E
:1006600008955D9BFECF8CB9089580916E009091A6
:100670006F0080589F4F2091700030917100821B55
:10068000930B60E870E02ED1089540917000509176
:10069000710080916E0090916F008417950719F496
:1006A0008FEF9FEF0895FA01EA58FF4F2081CA01AA
:1006B000019660E870E016D190937100809370000D
:1006C000822F9927089580917000909171009093E6
:1006D0006F0080936E0008951F920F920FB60F92D5
:1006E00011242F933F934F935F936F937F938F9337
:1006F0009F93AF93BF93EF93FF934CB1E0916E0044
:10070000F0916F00CF01019660E870E0EBD09C01A2
:1007100080917000909171002817390739F0EA58DC
:10072000FF4F408330936F0020936E00FF91EF9155
:10073000BF91AF919F918F917F916F915F914F91F9
:100740003F912F910F900FBE0F901F901895089515
:100750005D9BFECF8CB908952F923F924F925F928E
:100760006F927F928F929F92AF92BF92CF92DF92C1
:10077000EF92FF920F931F93CF93DF93CDB7DEB726
:10078000A0970FB6F894DEBF0FBECDBF6B017C0102
:1007900029013A01611571058105910529F45D9BD7
:1007A000FECF80E38CB944C08824992454011E01F3
:1007B0000894211C311C8101080D191DC701B601C7
:1007C000A3019201A2D0F80160830894811C911CBE
:1007D000A11CB11CC701B601A301920196D0690109
:1007E0007A01211531054105510529F70894810841
:1007F0009108A108B108F101E80DF91D0894811CC8
:10080000911CA11CB11C0FC0089481089108A1087B
:10081000B10880818A3010F4805D01C0895C5D9BE5
:10082000FECF8CB9319781149104A104B10461F712
:10083000A0960FB6F894DEBF0FBECDBFDF91CF916B
:100840001F910F91FF90EF90DF90CF90BF90AF90EE
:100850009F908F907F906F905F904F903F902F90E0
:10086000089520E130E040E050E076DF089528E090
:1008700030E040E050E070DF089522E030E040E0FA
:1008800050E06ADF08955D9BFECF8AE08CB9089541
:10089000EF92FF920F931F937B018C0197FF0CC087
:1008A0005D9BFECF8DE28CB910950095F094E0949D
:1008B000E11CF11C011D111D2AE030E040E050E078
:1008C000C801B70149DF1F910F91FF90EF90089584
:1008D000FC0104C05D9BFECF31968CB980818823DA
:1008E000C9F7089597FB092E07260AD077FD04D093
:1008F00049D006D000201AF4709561957F4F089575
:10090000F6F7909581959F4F0895A1E21A2EAA1BA4
:10091000BB1BFD010DC0AA1FBB1FEE1FFF1FA217AF
:10092000B307E407F50720F0A21BB30BE40BF50BAC
:10093000661F771F881F991F1A9469F76095709535
:10094000809590959B01AC01BD01CF01089597FB67
:10095000092E05260ED057FD04D0D7DF0AD0001C83
:1009600038F450954095309521953F4F4F4F5F4F4C
:100970000895F6F790958095709561957F4F8F4F0C
:100980009F4F0895AA1BBB1B51E107C0AA1FBB1FA5
:10099000A617B70710F0A61BB70B881F991F5A950B
:1009A000A9F780959095BC01CD010895EE0FFF1F2A
:0A09B0000590F491E02D0994FFCFAB
:0209BA0001003A
:00000001FF
