:100000000C945B000C9483000C9483000C9483008C
:100010000C9483000C9483000C9483000C94830054
:100020000C9483000C9483000C9483000C94830044
:100030000C9483000C9483000C9483000C94830034
:100040000C943C010C9483000C94EA030C94830000
:100050000C9483000C9483000C9483000C94830014
:100060000C9483000C948300000024272A000025B0
:10007000282B000023262904040404040404040299
:100080000202020202030303030303010204081035
:100090002040800102040810200102040810200002
:1000A0000000070002010000030406000000000039
:1000B000000000006F0311241FBECFEFD4E0DEBFAD
:1000C000CDBF11E0A0E0B1E0E0EFFAE002C00590A2
:1000D0000D92A630B107D9F711E0A6E0B1E001C05A
:1000E0001D92A039B107E1F710E0C6EBD0E004C0E3
:1000F0002297FE010E947305C43BD107C9F70E94F5
:1001000031010C9477050C940000BF92CF92DF92DE
:10011000EF92FF920F931F93CF93DF938C017B019C
:10012000D42EC62E61E08E2D0E94EA01B02E61E031
:10013000802F0E94EA0160E0802F0E94540260E05C
:100140008E2D0E945402C7E0D0E00D2D112760E0F3
:100150008C2D0E945402B8010C2E02C07595679533
:100160000A94E2F7617070708B2D0E94540261E076
:100170008C2D0E94540260E08B2D0E945402219726
:100180008FEFCF3FD80719F760E08C2D0E94540203
:10019000DF91CF911F910F91FF90EF90DF90CF9063
:1001A000BF9008958EE78093060160E08091000182
:1001B0000E94540260910201709103014091060176
:1001C00080910401909105010E94850061E0809179
:1001D00000010E94540286EE8093060160E0809147
:1001E00000010E945402609102017091030140914C
:1001F000060180910401909105010E94850061E053
:10020000809100010E94540286E38093060160E021
:10021000809100010E9454026091020170910301DB
:100220004091060180910401909105010E94850092
:1002300061E0809100010E94540260E08091000121
:100240000E945402089561E0809100010E94EA0139
:1002500040E855E260E070E087E091E00E946903C9
:100260000895CFEFD4E0DEBFCDBF0E94A8010E9469
:1002700023010E94D200FDCF1F920F920FB60F9262
:1002800011248F939F93AF93BF9380910C01909112
:100290000D01A0910E01B0910F010196A11DB11D9C
:1002A00080930C0190930D01A0930E01B0930F0168
:1002B000BF91AF919F918F910F900FBE0F901F90A4
:1002C000189560910C0170910D0180910E01909133
:1002D0000F0127E0660F771F881F991F2A95D1F716
:1002E0002DE730E040E050E00E942005CA01B9014E
:1002F0000895AF92BF92CF92DF92EF92FF920F9349
:100300001F935B016C010E9461017B018C010E94C3
:1003100061016E197F09800B910B6A157B058C05B5
:100320009D05A8F31F910F91FF90EF90DF90CF9064
:10033000BF90AF900895019751F0880F991F880FD3
:10034000991F02972FB7F8940197F1F72FBF0895DF
:10035000789410920C0110920D0110920E011092DF
:100360000F0184B5826084BD84B5816084BD85B58C
:10037000826085BD85B5816085BDEEE6F0E0808157
:1003800081608083E1E8F0E0808182608083808109
:1003900081608083E0E8F0E0808181608083E1EB30
:1003A000F0E0808184608083E0EBF0E08081816018
:1003B0008083EAE7F0E080818460808380818260CE
:1003C00080838081816080838081806880831092B7
:1003D000C1000895282F3327C90185579F4FFC017D
:1003E000949129583F4FF9018491882381F0E82F97
:1003F000FF27E859FF4FE491FF27662329F4808106
:1004000090958923808308958081892B8083089526
:10041000482F5527CA0181569F4FFC012491CA01DC
:1004200085579F4FFC01949149585F4FFA013491D1
:10043000332319F480E090E00895222331F1233032
:1004400021F4809180008F7705C0243031F48091B1
:1004500080008F7D8093800018C0213019F484B50E
:100460008F7704C0223021F484B58F7D84BD0DC008
:10047000263021F48091B0008F7705C0273029F411
:100480008091B0008F7D8093B000E32FFF27EE585E
:10049000FF4FE491FF27808120E030E0892311F0B5
:1004A00021E030E0C9010895482F5527CA0181563F
:1004B0009F4FFC012491CA0185579F4FFC019491E5
:1004C00049585F4FFA0134913323C1F1222331F1AE
:1004D000233021F4809180008F7705C0243031F4DF
:1004E000809180008F7D8093800018C0213019F4A6
:1004F00084B58F7704C0223021F484B58F7D84BD0C
:100500000DC0263021F48091B0008F7705C02730D0
:1005100029F48091B0008F7D8093B000E32FFF27F6
:10052000E359FF4FE491FF27662329F480819095DA
:100530008923808308958081892B8083089508957D
:100540000895CB01BA013327442755270E94300470
:1005500008952AE00E94A1020895AB01662777273B
:100560000E94A9020895862F0E9428040895862FCC
:100570000E94280408950F931F938C016DE00E9440
:10058000B7026AE0C8010E94B7021F910F91089557
:100590000F931F938C010E94A902C8010E94BB0205
:1005A0001F910F9108950F931F938C010E94AD022C
:1005B000C8010E94BB021F910F9108950F931F93D2
:1005C0008C010E94B302C8010E94BB021F910F91CF
:1005D00008950F931F938C010E94B702C8010E94D7
:1005E000BB021F910F910895EF92FF920F931F93FB
:1005F000CF93DF93EC017A018B0177FF0BC06DE2A3
:100600000E94B70210950095F094E094E11CF11C53
:10061000011D111D2AE0B801A701CE010E94A1020F
:10062000DF91CF911F910F91FF90EF9008950F935D
:100630001F938C010E94F402C8010E94BB021F910B
:100640000F9108952115310521F4642F0E94B702FE
:1006500008952A30310519F40E94F40208950E9489
:10066000A10208950F931F938C010E942203C801D9
:100670000E94BB021F910F910895AB01662757FDA1
:100680006095762F0E94F40208950F931F938C01BA
:100690000E943D03C8010E94BB021F910F91089563
:1006A000CB010E94000508950F931F938C010E94B7
:1006B0005003C8010E94BB021F910F9108950E9430
:1006C000E10308950E94C20308950E94B10399278F
:1006D0000895CB01BA010E9470030895089508950A
:1006E000EF92FF920F931F937B018C0122E030E089
:1006F00040E050E00E944205205C3D4B404F5F4F80
:10070000CA01B901A80197010E9442052150304059
:1007100040405040BB2757FDBA95A52F942F832FFB
:100720002F5F3F4F4F4F5F4F8093C5002150209365
:10073000C400E1ECF0E0808180618083808188608A
:1007400080838081806880831F910F91FF90EF905C
:100750000895982F8091C00085FFFCCF9093C6002C
:100760000895809108019091090180589F4F209130
:100770000A0130910B01821B930B60E870E00E942C
:100780000D05089540910A0150910B0180910801D7
:10079000909109018417950719F48FEF9FEF089541
:1007A000FA01E05FFE4F2081CA01019660E870E027
:1007B0000E940D0590930B0180930A01822F9927C7
:1007C000089580910A0190910B0190930901809303
:1007D000080108951F920F920FB60F9211242F93C4
:1007E0003F934F935F936F937F938F939F93AF93B9
:1007F000BF93EF93FF934091C600E0910801F09101
:100800000901CF01019660E870E00E940D059C018E
:1008100080910A0190910B012817390739F0E05FA8
:10082000FE4F40833093090120930801FF91EF911F
:10083000BF91AF919F918F917F916F915F914F91F8
:100840003F912F910F900FBE0F901F901895089514
:10085000982F8091C00085FFFCCF9093C60008952B
:100860002F923F924F925F926F927F928F929F92C0
:10087000AF92BF92CF92DF92EF92FF920F931F93AE
:10088000CF93DF93CDB7DEB7A0970FB6F894DEBF56
:100890000FBECDBF6B017C0129013A0161157105C5
:1008A0008105910541F48091C00085FFFCCF80E374
:1008B0008093C6004BC08824992454011E010894DB
:1008C000211C311C8101080D191DC701B601A301AE
:1008D00092010E942005F80160830894811C911CFC
:1008E000A11CB11CC701B601A30192010E94200501
:1008F00069017A01211531054105510519F708945F
:1009000081089108A108B108F101E80DF91D0894CA
:10091000811C911CA11CB11C14C008948108910871
:10092000A108B10880818A3018F4982F905D02C028
:10093000982F995C8091C00085FFFCCF9093C600F2
:10094000319781149104A104B10439F7A0960FB630
:10095000F894DEBF0FBECDBFDF91CF911F910F91F5
:10096000FF90EF90DF90CF90BF90AF909F908F90CF
:100970007F906F905F904F903F902F90089520E16F
:1009800030E040E050E00E943004089528E030E07C
:1009900040E050E00E943004089522E030E040E062
:1009A00050E00E94300408958091C00085FFFCCF84
:1009B0008AE08093C6000895EF92FF920F931F93F1
:1009C0007B018C0197FF0FC08091C00085FFFCCF99
:1009D0008DE28093C60010950095F094E094E11CA0
:1009E000F11C011D111D2AE030E040E050E0C8017B
:1009F000B7010E9430041F910F91FF90EF9008956E
:100A0000FC0107C08091C00085FFFCCF3196909318
:100A1000C60090819923B1F7089597FB092E072608
:100A20000AD077FD04D049D006D000201AF4709582
:100A300061957F4F0895F6F7909581959F4F0895A2
:100A4000A1E21A2EAA1BBB1BFD010DC0AA1FBB1FD2
:100A5000EE1FFF1FA217B307E407F50720F0A21B44
:100A6000B30BE40BF50B661F771F881F991F1A94B1
:100A700069F760957095809590959B01AC01BD01DB
:100A8000CF01089597FB092E05260ED057FD04D0FF
:100A9000D7DF0AD0001C38F4509540953095219549
:100AA0003F4F4F4F5F4F0895F6F7909580957095A3
:100AB00061957F4F8F4F9F4F0895AA1BBB1B51E13C
:100AC00007C0AA1FBB1FA617B70710F0A61BB70BBE
:100AD000881F991F5A95A9F780959095BC01CD0163
:100AE0000895EE0FFF1F0590F491E02D0994FFCFBC
:060AF00008000C000B00E1
:00000001FF
