:100000000C945A000C9477000C9477000C947700B1
:100010000C9477000C9477000C9477000C94770084
:100020000C9477000C9477000C9477000C94770074
:100030000C9477000C9477000C9477000C94770064
:100040000C94CE000C9477000C9477000C947700FD
:100050000C9477000C9477000C9477000C94770044
:100060000C9477000C947700000024272A000025C8
:10007000282B000023262904040404040404040299
:100080000202020202030303030303010204081035
:100090002040800102040810200102040810200002
:1000A0000000070002010000030406000000000039
:1000B0000000000011241FBECFEFD4E0DEBFCDBF93
:1000C00011E0A0E0B1E0ECE7F6E002C005900D928F
:1000D000A230B107D9F711E0A2E0B1E001C01D9252
:1000E000AC30B107E1F70E94C3000C943D030C94BF
:1000F000000085E00E9434029C01909303018093EC
:100100000201BC0193E0660F771F9A95E1F7220F79
:10011000331F620F731F882777FD8095982F0E94E9
:10012000C3026093040170930501809306019093CC
:10013000070161E089E00E94E6016091040170918D
:10014000050180910601909107010E94A602DC0141
:10015000CB010E942D0160E089E00E94E6016091E0
:1001600004017091050180910601909107010E94A0
:10017000A602DC01CB010E942D01089561E089E017
:100180000E947C010895CFEFD4E0DEBFCDBF0E9476
:100190003A010E94BE000E947900FDCF1F920F928B
:1001A0000FB60F9211248F939F93AF93BF938091BB
:1001B000080190910901A0910A01B0910B010196EB
:1001C000A11DB11D8093080190930901A0930A011C
:1001D000B0930B01BF91AF919F918F910F900FBE84
:1001E0000F901F90189560910801709109018091FE
:1001F0000A0190910B0127E0660F771F881F991F56
:100200002A95D1F72DE730E040E050E00E941B0333
:10021000CA01B9010895AF92BF92CF92DF92EF92D7
:10022000FF920F931F935B016C010E94F3007B010F
:100230008C010E94F3006E197F09800B910B6A15E7
:100240007B058C059D05A8F31F910F91FF90EF9002
:10025000DF90CF90BF90AF900895019751F0880F35
:10026000991F880F991F02972FB7F8940197F1F7FC
:100270002FBF0895789410920801109209011092EE
:100280000A0110920B0184B5826084BD84B581603F
:1002900084BD85B5826085BD85B5816085BDEEE68E
:1002A000F0E0808181608083E1E8F0E0808182601D
:1002B0008083808181608083E0E8F0E080818160DC
:1002C0008083E1EBF0E0808184608083E0EBF0E00C
:1002D000808181608083EAE7F0E0808184608083B0
:1002E000808182608083808181608083808180685A
:1002F00080831092C1000895282F3327C9018557A4
:100300009F4FFC01949129583F4FF9018491882314
:1003100081F0E82FFF27E859FF4FE491FF2766237C
:1003200029F4808190958923808308958081892B89
:1003300080830895482F5527CA0181569F4FFC019D
:100340002491CA0185579F4FFC01949149585F4FF2
:10035000FA013491332319F480E090E008952223C8
:1003600031F1233021F4809180008F7705C0243053
:1003700031F4809180008F7D8093800018C02130FF
:1003800019F484B58F7704C0223021F484B58F7DB1
:1003900084BD0DC0263021F48091B0008F7705C058
:1003A000273029F48091B0008F7D8093B000E32F37
:1003B000FF27EE58FF4FE491FF27808120E030E0D7
:1003C000892311F021E030E0C9010895482F552715
:1003D000CA0181569F4FFC012491CA0185579F4F46
:1003E000FC01949149585F4FFA0134913323C1F1D4
:1003F000222331F1233021F4809180008F7705C0D2
:10040000243031F4809180008F7D8093800018C06B
:10041000213019F484B58F7704C0223021F484B5DB
:100420008F7D84BD0DC0263021F48091B0008F7780
:1004300005C0273029F48091B0008F7D8093B000F3
:10044000E32FFF27E359FF4FE491FF27662329F4A9
:10045000808190958923808308958081892B808372
:1004600008958093000108958F70909100019295F6
:10047000990F990F907C982B90937C0080917A0033
:10048000806480937A0080917A0086FDFCCF209171
:100490007800809179009927982F88273327822B1D
:1004A000932B08951F93CF93DF93182FEB0161E0F7
:1004B0000E947C01E12FFF27E156FF4F849183309A
:1004C00051F480918000806880938000D0938900EF
:1004D000C093880037C0843051F4809180008062DE
:1004E00080938000D0938B00C0938A002BC0813012
:1004F00029F484B5806884BDC7BD24C0823029F446
:1005000084B5806284BDC8BD1DC0863041F4809131
:10051000B00080688093B000C093B30013C08730F0
:1005200041F48091B00080628093B000C093B40029
:1005300009C0C038D10514F460E001C061E0812F2A
:100540000E94E601DF91CF911F91089597FB4ED055
:100550009F3738F0FEE9F91B982F872F762F6B2FE6
:1005600005C061C09695879577956795F150D0F74E
:100570003EF490958095709561957F4F8F4F9F4F7A
:100580000895E89403C097FB0EF4F3DFB62F672FAE
:10059000782F892F9EE9002405C09A95BB0F661F0E
:1005A000771F881F11249923A1F08823B2F79F3F5A
:1005B00059F0BB0F48F421F4002011F460FF04C08F
:1005C0006F5F7F4F8F4F9F4F881F9795879597F944
:1005D000089529C0052E092607FA440F551F5F3FCD
:1005E00079F0AA27A51708F051E04795880F991FC1
:1005F0009F3F31F0BB27B91708F091E08795089528
:100600009F919F91112414C097FB880F991F9F3FC2
:1006100031F0BB27B91708F091E0879508959F91B5
:100620009F91112405C06627772788279927089569
:100630009FEF80EC0895A1E21A2EAA1BBB1BFD01BF
:100640000DC0AA1FBB1FEE1FFF1FA217B307E407B1
:10065000F50720F0A21BB30BE40BF50B661F771F09
:10066000881F991F1A9469F76095709580959095E9
:0C0670009B01AC01BD01CF010895FFCF3C
:02067C0001007B
:00000001FF
