:1000000038C052C051C050C04FC04EC04DC04CC08F
:100010004BC0CCC049C048C047C046C045C044C022
:1000200043C042C041C0000037343100003835328F
:100030000000363330040404040404040402020201
:100040000202020303030303030102040810204019
:1000500080010204081020010204081020000000A2
:100060000000000000000304050000000000000084
:10007000000011241FBECFE5D4E0DEBFCDBF10E0ED
:10008000A0E6B0E0E4E2F4E002C005900D92A636EE
:10009000B107D9F710E0A6E6B0E001C01D92AB367B
:1000A000B107E1F77BD0BDC1ABCF61E080916000CB
:1000B0000DD10895BF92CF92DF92EF92FF920F93EE
:1000C0001F93CF93DF938C017B01D42EC62E61E06A
:1000D0008E2DFCD0B02E61E0802FF8D060E0802F14
:1000E00049D160E08E2D46D1C7E0D0E00D2D11271B
:1000F00060E08C2D3FD1B8010C2E02C0759567953C
:100100000A94E2F7617070708B2D34D161E08C2D10
:1001100031D160E08B2D2ED121978FEFCF3FD807C3
:1001200039F760E08C2D26D1DF91CF911F910F918F
:10013000FF90EF90DF90CF90BF9008950F931F93A3
:100140008C0160E08091600015D141E050E002C078
:10015000440F551F0A95E2F76091620070916300A9
:100160008091640090916500A5DF61E0809160005E
:1001700001D11F910F910895CF93DF93C0E0D0E09C
:10018000CE01DCDF64E670E080E090E04BD02196A9
:10019000C830D105A9F7DF91CF910895CFE5D4E01C
:1001A000DEBFCDBF6CD081DFE7DFFECF1F920F92A5
:1001B0000FB60F9211248F939F93AF93BF938091AB
:1001C000670090916800A0916900B0916A00019663
:1001D000A11DB11D8093670090936800A0936900F2
:1001E000B0936A00BF91AF919F918F910F900FBE16
:1001F0000F901F9018956091670070916800809132
:10020000690090916A0027E0660F771F881F991F89
:100210002A95D1F72DE730E040E050E0E0D0CA0168
:10022000B9010895AF92BF92CF92DF92EF92FF9201
:100230000F931F935B016C01DEDF7B018C01DBDF21
:100240006E197F09800B910B6A157B058C059D0546
:10025000B0F31F910F91FF90EF90DF90CF90BF9080
:10026000AF900895019751F0880F991F880F991F3B
:1002700002972FB7F8940197F1F72FBF089578945C
:1002800010926700109268001092690010926A0044
:1002900083B7826083BF83B7816083BF89B7816082
:1002A00089BF8EB582608EBD8EB581608EBD8FB5E3
:1002B00081608FBD85B5846085BD85B5806485BD51
:1002C000329A319A309A379A1AB80895282F3327DC
:1002D000C901875B9F4FFC0194912B5C3F4FF90153
:1002E0008491882381F0E82FFF27EA5DFF4FE49196
:1002F000FF27662329F480819095892380830895C0
:100300008081892B80830895482F5527CA01835AFD
:100310009F4FFC012491CA01875B9F4FFC01949180
:100320004B5C5F4FFA013491332319F480E090E085
:100330000895222381F0233019F48FB58F7704C0FC
:10034000243021F48FB58F7D8FBD05C0253019F481
:1003500085B58F7D85BDE32FFF27E05DFF4FE491DD
:10036000FF27808120E030E0892311F021E030E098
:10037000C9010895482F5527CA01835A9F4FFC0190
:100380002491CA01875B9F4FFC0194914B5C5F4FA6
:10039000FA013491332311F1222381F0233019F42F
:1003A0008FB58F7704C0243021F48FB58F7D8FBD3A
:1003B00005C0253019F485B58F7D85BDE32FFF2756
:1003C000E55DFF4FE491FF27662329F48081909536
:1003D0008923808308958081892B80830895A1E2F9
:1003E0001A2EAA1BBB1BFD010DC0AA1FBB1FEE1FAF
:1003F000FF1FA217B307E407F50720F0A21BB30BFA
:10040000E40BF50B661F771F881F991F1A9469F775
:1004100060957095809590959B01AC01BD01CF01D1
:040420000895FFCF6D
:0604240008000C000B00B3
:00000001FF
