:1000000038C052C051C050C04FC04EC04DC04CC08F
:100010004BC079C149C048C047C046C045C044C074
:1000200043C042C041C0000037343100003835328F
:100030000000363330040404040404040402020201
:100040000202020303030303030102040810204019
:1000500080010204081020010204081020000000A2
:100060000000000000000304050000000000000084
:10007000000011241FBECFE5D4E0DEBFCDBF10E0ED
:10008000A0E6B0E0ECEDF7E002C005900D92A23AD8
:10009000B107D9F710E0A2EAB0E001C01D92A23B7F
:1000A000B107E1F7A3D098C3ABCFEF92FF920F93C4
:1000B0001F9385E0E2D160E270E045D3FB017093CD
:1000C000A9006093A800EE0FFF1FE05AFF4F608168
:1000D0007181882777FD8095982F46D27B018C010E
:1000E0006093A2007093A3008093A4009093A50056
:1000F00084E0C3D1AA2797FDA095BA2FBC01CD01FA
:1001000033D29B01AC01C801B70192D220E030E0AC
:1001100040E85CE38DD2F5D17093A7006093A60010
:1001200088E0BBD09093AB008093AA00813091050A
:10013000B9F52091AC003091AD002230310589F045
:100140002330310524F42130310551F507C0233027
:100150003105A9F02430310519F51EC082E090E088
:100160001BC08091A6009091A70062E070E0EBD2E6
:100170007093A7006093A60083E090E00DC080918B
:10018000A6009091A70064E070E0DDD27093A70014
:100190006093A60084E090E09093AD008093AC0063
:1001A00061E089E045D08091A6009091A7002DD113
:1001B00060E089E03DD08091A6009091A70025D114
:1001C0001F910F91FF90EF90089561E089E012D0A8
:1001D00060E088E00FD01092AB001092AA0081E09E
:1001E00090E09093AD008093AC0008951CD1EDDFBA
:1001F0005CDFFECF282F30E0C901875B9F4FFC01F9
:1002000094912B5C3F4FF9018491882381F0E82F72
:10021000F0E0EA5DFF4FE491F0E0662329F480818D
:1002200090958923808308958081892B8083089508
:10023000482F50E0CA01835A9F4FFC012491CA0104
:10024000875B9F4FFC0194914B5C5F4FFA013491A7
:10025000332311F1222381F0233019F48FB58F77E6
:1002600004C0243021F48FB58F7D8FBD05C02530AB
:1002700019F485B58F7D85BDE32FF0E0E55DFF4F77
:10028000E491F0E0662329F48081909589238083AE
:1002900008958081892B80830895482F50E0CA01FA
:1002A000835A9F4FFC012491CA01875B9F4FFC0139
:1002B00094914B5C5F4FFA013491332319F420E0A1
:1002C00030E01FC0222381F0233019F48FB58F77DF
:1002D00004C0243021F48FB58F7D8FBD05C025303B
:1002E00019F485B58F7D85BDE32FF0E0E05DFF4F0C
:1002F000E491F0E0808120E030E0892311F021E0FA
:1003000030E0C90108951F920F920FB60F92112489
:100310008F939F93AF93BF938091AE009091AF0066
:10032000A091B000B091B1000196A11DB11D8093C4
:10033000AE009093AF00A093B000B093B100BF9116
:10034000AF919F918F910F900FBE0F901F901895B6
:100350006091AE007091AF008091B0009091B100BB
:1003600027E0660F771F881F991F2A95D1F72DE781
:1003700030E040E050E0FAD1CA01B9010895AF92EF
:10038000BF92CF92DF92EF92FF920F931F935B0188
:100390006C016091AE007091AF008091B0009091BF
:1003A000B10047E0660F771F881F991F4A95D1F764
:1003B0002DE730E040E050E0D9D179018A01609129
:1003C000AE007091AF008091B0009091B10037E025
:1003D000660F771F881F991F3A95D1F72DE730E0F8
:1003E00040E050E0C3D12E193F09400B510B2A15B4
:1003F0003B054C055D0518F31F910F91FF90EF90A1
:10040000DF90CF90BF90AF900895019759F0FC0115
:10041000EE0FFF1FEE0FFF1F32978FB7F894319743
:10042000F1F78FBF089578941092AE001092AF004C
:100430001092B0001092B10083B7826083BF83B77F
:10044000816083BF89B7816089BF8EB582608EBDB0
:100450008EB581608EBD8FB581608FBD85B584609E
:1004600085BD85B5806485BD329A319A309A379AB8
:100470001AB808958093A00008958F709091A000FD
:100480009295990F990F907C982B97B9369A369937
:10049000FECF24B145B1942F80E030E0282B392BDA
:1004A000C90108951F93CF93DF93182FEB0161E0EB
:1004B000A1DEE12FF0E0E35AFF4F8491833031F465
:1004C0008FB580688FBDDBBDCABD17C0843031F4E5
:1004D0008FB580628FBDD9BDC8BD0FC0853029F4EE
:1004E00085B5806285BDC3BD08C0C038D10514F490
:1004F00060E001C061E0812F9BDEDF91CF911F9111
:10050000089504D06894B1118DC0089570D088F01A
:100510009F5790F0B92F9927B751A0F0D1F0660FEF
:10052000771F881F991F1AF0BA95C9F712C0B1300A
:1005300081F077D0B1E0089574C0672F782F8827B5
:10054000B85F39F0B93FCCF3869577956795B39549
:10055000D9F73EF490958095709561957F4F8F4FB8
:100560009F4F0895E89409C097FB3EF490958095BD
:10057000709561957F4F8F4F9F4F9923A9F0F92F69
:1005800096E9BB279395F695879577956795B795E7
:10059000F111F8CFFAF4BB0F11F460FF1BC06F5FCD
:1005A0007F4F8F4F9F4F16C0882311F096E911C0DF
:1005B000772321F09EE8872F762F05C0662371F000
:1005C00096E8862F70E060E02AF09A95660F771F14
:1005D000881FDAF7880F9695879597F9089557FD44
:1005E0009058440F551F59F05F3F71F04795880FA1
:1005F00097FB991F61F09F3F79F087950895121638
:1006000013061406551FF2CF4695F1DF08C01616E3
:1006100017061806991FF1CF869571056105089494
:100620000895E894BB2766277727CB0197F90895AB
:100630000BD078C069D028F06ED018F0952309F05F
:100640005AC05FC01124EECFCADFA0F3959FD1F34B
:10065000950F50E0551F629FF001729FBB27F00D70
:10066000B11D639FAA27F00DB11DAA1F649F6627C5
:10067000B00DA11D661F829F2227B00DA11D621F14
:10068000739FB00DA11D621F839FA00D611D221FCE
:10069000749F3327A00D611D231F849F600D211DB2
:1006A000822F762F6A2F11249F5750408AF0E1F055
:1006B00088234AF0EE0FFF1FBB1F661F771F881F9E
:1006C00091505040A9F79E3F510570F014C0AACF39
:1006D0005F3FECF3983EDCF3869577956795B79589
:1006E000F795E7959F5FC1F7FE2B880F911D9695B3
:1006F000879597F9089597F99F6780E870E060E023
:1007000008959FEF80EC089500240A9416161706AA
:1007100018060906089500240A94121613061406F2
:1007200005060895092E0394000C11F4882352F055
:10073000BB0F40F4BF2B11F460FF04C06F5F7F4F0D
:100740008F4F9F4F089597FB092E07260AD077FDFC
:1007500004D02ED006D000201AF4709561957F4FFA
:100760000895F6F7909581959F4F0895A1E21A2E6E
:10077000AA1BBB1BFD010DC0AA1FBB1FEE1FFF1F45
:10078000A217B307E407F50720F0A21BB30BE40B95
:10079000F50B661F771F881F991F1A9469F76095DC
:1007A0007095809590959B01AC01BD01CF01089596
:1007B000AA1BBB1B51E107C0AA1FBB1FA617B70787
:1007C00010F0A61BB70B881F991F5A95A9F78095A3
:0C07D0009095BC01CD010895F894FFCF76
:1007DC005A019B01CD0106026802B30236039B034A
:1007EC000C04D00467056C06350717089F09CD0A61
:1007FC00D80C6B0E2F103F139A15B119D61C5E2016
:10080C007E26342B6133AC39BC40FC4C6956C26635
:02081C000100D9
:00000001FF
