:1000000038C052C051C050C04FC04EC04DC04CC08F
:100010004BC06BC149C048C047C046C045C044C082
:1000200043C042C041C0000037343100003835328F
:100030000000363330040404040404040402020201
:100040000202020303030303030102040810204019
:1000500080010204081020010204081020000000A2
:100060000000000000000304050000000000000084
:10007000000011241FBECFE5D4E0DEBFCDBF10E0ED
:10008000A0E6B0E0E0EFF5E002C005900D92AA36E0
:10009000B107D9F710E0AAE6B0E001C01D92A2397D
:1000A000B107E1F71AD1A3C2ABCF61E08091600044
:1000B000ACD160E080916600A8D171E070936E00D1
:1000C00062E060936F0054E05093700048E040930A
:1000D000710030E13093720020E22093730090E4CD
:1000E0009093740080E880937500109276001092CF
:1000F0007700109278001092790010927A00109296
:100100007B0010927C0010927D0010927E00109275
:100110007F00109280001092810010928200109255
:100120008300109284001092850070938600609383
:100130008700509388004093890030938A00209371
:100140008B0090938C0080938D000895BF92CF9286
:10015000DF92EF92FF920F931F93CF93DF938C0167
:100160007B01D42EC62E61E08E2D4FD1B02E61E0E2
:10017000802F4BD160E0802F9CD160E08E2D99D1F3
:10018000C7E0D0E00D2D112760E08C2D92D1B80191
:100190000C2E02C0759567950A94E2F76170707035
:1001A0008B2D87D161E08C2D84D160E08B2D81D1A6
:1001B00021978FEFCF3FD80739F760E08C2D79D1A9
:1001C000DF91CF911F910F91FF90EF90DF90CF9033
:1001D000BF9008950F931F93CF93DF938091660094
:1001E00032D190936B0080936A000197D1F5C0E003
:1001F000D0E0FE01E259FF4F808180936C00FE0148
:10020000E258FF4F808180936D0060E08091600034
:1002100050D1609162007091630040916D008091B7
:1002200064009091650092DF6091620070916300BC
:1002300040916C00809164009091650087DF61E0DF
:100240008091600036D185E06CD1AA2797FDA095FA
:10025000BA2FBC01CD0185D02196C031D105C1F1A5
:10026000C8CFCEE6D0E006E810E0899180936C001C
:10027000F80181918F0180936D0060E080916000B2
:1002800018D1609162007091630040916D0080917F
:100290006400909165005ADF609162007091630084
:1002A00040916C0080916400909165004FDF61E0A7
:1002B00080916000FED085E034D1AA2797FDA095FB
:1002C000BA2FBC01CD014DD0F0E0C637DF0769F68B
:1002D000DF91CF911F910F910895CFE5D4E0DEBF5C
:1002E000CDBF6CD0E2DE76DFFECF1F920F920FB64D
:1002F0000F9211248F939F93AF93BF9380918E00A1
:1003000090918F00A0919000B09191000196A11D55
:10031000B11D80938E0090938F00A0939000B093B6
:100320009100BF91AF919F918F910F900FBE0F9051
:100330001F90189560918E0070918F0080919000B1
:100340009091910027E0660F771F881F991F2A95CB
:10035000D1F72DE730E040E050E027D1CA01B901E4
:100360000895AF92BF92CF92DF92EF92FF920F93D8
:100370001F935B016C01DEDF7B018C01DBDF6E19FB
:100380007F09800B910B6A157B058C059D05B0F3E9
:100390001F910F91FF90EF90DF90CF90BF90AF90A3
:1003A0000895019751F0880F991F880F991F0297A0
:1003B0002FB7F8940197F1F72FBF08957894109212
:1003C0008E0010928F00109290001092910083B7CF
:1003D000826083BF83B7816083BF89B7816089BF33
:1003E0008EB582608EBD8EB581608EBD8FB5816009
:1003F0008FBD85B5846085BD85B5806485BD329A25
:10040000319A309A379A1AB80895282F3327C9019C
:10041000875B9F4FFC0194912B5C3F4FF9018491C6
:10042000882381F0E82FFF27EA5DFF4FE491FF2743
:10043000662329F4808190958923808308958081A3
:10044000892B80830895482F5527CA01835A9F4FCF
:10045000FC012491CA01875B9F4FFC0194914B5C86
:100460005F4FFA013491332319F480E090E008954E
:10047000222381F0233019F48FB58F7704C0243004
:1004800021F48FB58F7D8FBD05C0253019F485B55A
:100490008F7D85BDE32FFF27E05DFF4FE491FF27B0
:1004A000808120E030E0892311F021E030E0C901B3
:1004B0000895482F5527CA01835A9F4FFC01249164
:1004C000CA01875B9F4FFC0194914B5C5F4FFA011F
:1004D0003491332311F1222381F0233019F48FB5A5
:1004E0008F7704C0243021F48FB58F7D8FBD05C078
:1004F000253019F485B58F7D85BDE32FFF27E55D98
:10050000FF4FE491FF27662329F48081909589238A
:10051000808308958081892B80830895809368006B
:1005200008958F70909168009295990F990F907C23
:10053000982B97B9369A3699FECF24B185B1992771
:10054000982F88273327822B932B08951F93CF93BF
:10055000DF93182FEB0161E058DFE12FFF27E35A0B
:10056000FF4F8491833031F48FB580688FBDDBBD40
:10057000CABD17C0843031F48FB580628FBDD9BD3C
:10058000C8BD0FC0853029F485B5806285BDC3BD67
:1005900008C0C038D10514F460E001C061E0812FCB
:1005A00088DFDF91CF911F910895A1E21A2EAA1B37
:1005B000BB1BFD010DC0AA1FBB1FEE1FFF1FA21713
:1005C000B307E407F50720F0A21BB30BE40BF50B10
:1005D000661F771F881F991F1A9469F76095709599
:1005E000809590959B01AC01BD01CF010895FFCF8F
:0A05F00008000C000B0007000100DA
:00000001FF
