:100000000C9464000C948C000C948C000C948C0068
:100010000C948C000C948C000C948C000C948C0030
:100020000C948C000C948C000C948C000C948C0020
:100030000C948C000C948C000C948C000C948C0010
:100040000C9439080C948C000C940D090C948C00C1
:100050000C948C000C948C000C948C000C948C00F0
:100060000C94DD020C948C0000000000240027009A
:100070002A0000000000250028002B0000000000DE
:1000800023002600290004040404040404040202DA
:100090000202020203030303030301020408102007
:1000A0004080010204081020010204081020000012
:1000B0000007000201000003040600000000000029
:1000C0000000D601AD04EE0911241FBECFEFD4E02D
:1000D000DEBFCDBF11E0A0E0B1E0EAE0F7E102C091
:1000E00005900D92A032B107D9F712E0A0E2B1E07D
:1000F00001C01D92A832B107E1F710E0C8ECD0E0D2
:1001000004C02297FE010E947F0BC23CD107C9F7B1
:100110000E94C5070C94830B0C9400000F931F934F
:10012000CF93DF93689F8001699F100D789F100D1A
:100130001124C8010E94AA00EC01009729F060E098
:1001400070E0A8010E94AC01CE01DF91CF911F9118
:100150000F910895CF93DF93BC018230910510F485
:1001600062E070E0A0912602B0912702ED01E0E08C
:10017000F0E040E050E021C0888199818617970720
:1001800069F48A819B81309719F09383828304C03C
:100190009093270280932602FE0134C068177907E6
:1001A00038F44115510519F08417950708F4AC018E
:1001B000FE018A819B819C01E9012097E9F64115A6
:1001C0005105A9F1CA01861B970B049708F4BA01DF
:1001D000E0E0F0E02AC08D919C911197841795077B
:1001E000F9F46417750781F412968D919C91139719
:1001F000309719F09383828304C0909327028093F1
:100200002602FD0132964CC0CA01861B970BFD01E8
:10021000E80FF91F6193719302978D939C9340C0EF
:10022000FD01828193819C01D9011097A1F68091F3
:10023000240290912502892B41F48091160190911E
:100240001701909325028093240240911801509148
:1002500019014115510541F44DB75EB78091140164
:1002600090911501481B590B2091240230912502D1
:10027000CA01821B930B8617970780F0AB014E5F74
:100280005F4F8417950750F0420F531F509325027C
:1002900040932402F9016193719302C0E0E0F0E021
:1002A000CF01DF91CF910895CF93DF93009709F4A9
:1002B00050C0EC0122971B821A82A0912602B091B5
:1002C0002702109709F140E050E0AC17BD0708F194
:1002D000BB83AA83FE0121913191E20FF31FAE1778
:1002E000BF0779F48D919C911197280F391F2E5FCC
:1002F0003F4F3983288312968D919C9113979B834E
:100300008A834115510571F4D0932702C0932602C8
:1003100020C012968D919C911397AD01009711F01A
:10032000DC01D3CFFA01D383C28321913191E20F53
:10033000F31FCE17DF0769F488819981280F391FD1
:100340002E5F3F4FFA01318320838A819B81938303
:100350008283DF91CF910895DC0101C06D934150FC
:100360005040E0F7089581E08093290160932401D3
:1003700010922701109228010895809123019091F5
:100380002201891B089590912201809123019817E1
:1003900010F080E00895E0912001F0912101E90F33
:1003A000F11D80819F5F9093220108950895DF934E
:1003B000CF930F92CDB7DEB769838091290188234F
:1003C000A9F0809128018032B0F480912701E0915A
:1003D0002501F0912601E80FF11D6083809127012E
:1003E0008F5F809327018093280105C0CE0101967D
:1003F00061E00E94C0020F90CF91DF9108950E94AA
:10040000D701089560912501709126018091240102
:100410004091280121E00E947B0210922701109256
:100420002801109229010895862F60912001709172
:100430002101413208F040E20E944502109222015F
:100440008093230108950E941402089580E290E0B1
:1004500061E070E00E948E00809320019093210162
:10046000109222011092230180E290E061E070E09E
:100470000E948E00809325019093260110922701FF
:10048000109228010E945F040895982F413210F0C5
:1004900040E02FC080912B018823E1F781E0809319
:1004A0002B018FEF80933C01109233014093340174
:1004B000990F916090932C0185EE8093BC00809100
:1004C0002B018130E1F380913301841710F44091C6
:1004D0003301A0913101B091320120E030E007C03A
:1004E000FB01E20FF31F8D9180832F5F3F4F241795
:1004F000B8F3842F08951F93582F122F413210F014
:1005000081E03CC080912B018823E1F782E0809359
:100510002B018FEF80933C01109233014093340103
:10052000A0913101B0913201FB0102C081918D9304
:100530008E2F861B8417D0F3852F90E0880F991F8C
:1005400080932C0185EE8093BC00112321F08091D3
:100550002B018230E1F380913C018F3F11F480E068
:100560000DC080913C01803211F482E007C080917F
:100570003C01803311F084E001C083E01F910895B5
:10058000482F613210F081E0089580912B01843072
:1005900011F082E0089560933801A0913501B09187
:1005A0003601842F9C01F90102C081918D938E2F19
:1005B000841B8617D0F380E008951F920F920FB628
:1005C0000F9211242F933F934F935F936F937F93D9
:1005D0008F939F93AF93BF93EF93FF938091B90055
:1005E00090E0887F90708036910509F4E2C08136F2
:1005F0009105CCF58832910509F47BC089329105CB
:10060000B4F48031910509F46FC0813191053CF457
:10061000009709F438C1089709F040C165C08831D6
:10062000910509F466C0809709F038C17FC0803415
:10063000910509F4A3C08134910544F480339105F8
:1006400009F47FC0C89709F029C186C0803591059B
:1006500009F486C08835910509F495C08834910560
:1006600009F01CC19EC08839910509F404C189397B
:100670009105ECF48837910509F49BC08937910501
:100680004CF48836910509F494C08037910509F03F
:1006900005C18FC08838910509F4EDC080399105F6
:1006A00009F48DC08038910509F0F8C088C0803BFE
:1006B000910509F4B2C0813B91054CF4803A910553
:1006C00009F491C0883A910509F0E8C0A6C0803CC1
:1006D000910509F4D4C0883C910509F4D0C0883B49
:1006E000910509F0DBC0B1C080912C018093BB0063
:1006F000C0C09091330180913401981778F49091A3
:100700003301E0913101F0913201E90FF11D808157
:100710008093BB009F5F90933301ABC085ED8093C6
:10072000BC008091BC0084FDFCCFB6C080E2809309
:100730003C0185ED8093BC008091BC0084FDFCCF22
:10074000ABC080E380933C0185ED8093BC00809139
:10075000BC0084FDFCCFA0C088E380933C018FC027
:10076000809133019091BB00E0913101F091320111
:10077000E80FF11D90838F5F8093330190913301D7
:100780008091340174C0809133019091BB00E0915D
:100790003101F0913201E80FF11D90838F5F80935A
:1007A000330185ED8093BC008091BC0084FDFCCFBB
:1007B00073C083E080932B0110923B015AC080915B
:1007C0003B01803208F057C080913B019091BB0003
:1007D000E0913901F0913A01E80FF11D90838F5FAC
:1007E00080933B0146C080913B01803248F4809168
:1007F0003B01E0913901F0913A01E80FF11D1082BF
:1008000060913B01E0912F01F0913001809139011D
:1008100090913A0170E0099532C084E080932B01F9
:100820001092370110923801E0912D01F0912E01C4
:10083000099580913801882341F481E08093380143
:10084000E0913501F0913601108290913701E091ED
:100850003501F0913601E90FF11D80818093BB00D5
:100860009F5F9093370190913701809138019817DD
:1008700010F485EC01C085E88093BC000FC085ECC6
:100880008093BC0009C010923C0185ED8093BC00B0
:100890008091BC0084FDFCCF10922B01FF91EF9161
:1008A000BF91AF919F918F917F916F915F914F9188
:1008B0003F912F910F900FBE0F901F90189510929F
:1008C0002B01449A459AE9EBF0E080818E7F80838A
:1008D00080818D7F808388E48093B80085E4809355
:1008E000BC0080E290E061E070E00E948E008093A6
:1008F00031019093320180E290E061E070E00E946B
:100900008E00809335019093360180E290E061E0A3
:1009100070E00E948E008093390190933A0108950F
:100920000895FC01138214821582DC0180E0169682
:100930001C9216978F5F11968032C9F716A210A6E7
:1009400017A203A8F4A9E02D309709F0099508959E
:10095000FC0110820E94910408958DE391E00E94B1
:10096000A80408954F925F926F927F928F929F9208
:10097000AF92BF92CF92DF92EF92FF920F93DF93ED
:10098000CF9300D0CDB7DEB72B017A013A8329830C
:100990008DE061E00E94CC0700E089819A813C01F2
:1009A000882477FC8094982C5701CC24B7FCC09401
:1009B000DC2C11C0C401B3010E94A9088DE061E0E4
:1009C0000E94EC07C601B5010E94A9088DE060E015
:1009D0000E94EC070F5F802F90E08415950554F37B
:1009E0000F900F90CF91DF910F91FF90EF90DF90DC
:1009F000CF90BF90AF909F908F907F906F905F90BF
:100A00004F9008950F931F938C018DE061E00E9439
:100A1000CC07C80162E070E048EC50E020E931E02A
:100A20000E94B2046CE271E080E090E00E94A908AC
:100A3000C80162E070E041E050E024E030E00E9454
:100A4000B2046CE271E080E090E00E94A908C80165
:100A500060E070E048EC50E020E931E00E94B20430
:100A60001F910F9108950F931F9302E112E0C801A7
:100A700049EF50E060E070E020E030E00E94040BBD
:100A8000C80142E050E060E070E020E030E00E9409
:100A9000040BC80140E050E060E070E020E030E08E
:100AA0000E94040B1F910F91089582E192E047EF9D
:100AB00050E060E070E020E030E00E94040B089518
:100AC00082E192E040EF50E060E070E020E030E052
:100AD0000E94040B0895CF92DF92EF92FF920F9342
:100AE0001F937C0132E1C32E32E0D32EAC01662786
:100AF00057FD6095762F4F77507060707070C6010B
:100B000020E030E00E94040BEE0CEF2CEE1CFF08FE
:100B10000027F7FC0095102F8FE790E0A0E0B0E0F1
:100B2000E822F9220A231B23C601B801A70120E00D
:100B300030E00E94040B1F910F91FF90EF90DF9027
:100B4000CF900895EF92FF920F931F937A01062F93
:100B500010E00F701070006E222717FD2095322FC5
:100B600082E192E0B901A80120E030E00E94040B8C
:100B7000C7010E946B051F910F91FF90EF900895A0
:100B80001F93CF93DF93EC018881882351F10E945A
:100B9000600582E192E049E750E060E070E020E02B
:100BA00030E00E94040BE981FA8182E192E06081E9
:100BB0000E94250AE981FA8182E192E061810E9426
:100BC000250A12E009C0E981FA81E10FF11D808157
:100BD00090E00E946B051F5F88811817A0F30E94A8
:100BE0005505DF91CF911F9108951F93CF93DF9308
:100BF000EC018E81813731F0893789F5CE010E9471
:100C0000C00536C08DA99EA9892B91F18FA198A509
:100C1000019762E070E00E94190B162F862F90E07A
:100C20000E94AA00AC01DC0121E030E011C0FE010D
:100C3000E20FF11D96819C932F5FFE01E20FF11DE3
:100C40008681879588278795890F8D932F5F3F5FD2
:100C5000311768F3EDA9FEA9CA01099509C0EFA9EA
:100C6000F8AD309729F06FA161502796AE01099534
:100C7000DF91CF911F910895CF93DF93EC0182E133
:100C800092E00E94B309AC018EA1882391F0473F06
:100C9000510529F41EA2CE010E94F50593C08FA133
:100CA00098A5FE01E80FF91F4683019698A78FA328
:100CB00089C08B81882309F446C0403851050CF067
:100CC00042C081508B83FE01E80FF11D46838823CB
:100CD00009F078C08C81882309F474C0803D49F103
:100CE000813D28F4803959F0803C59F51FC0803E81
:100CF00019F0843F31F513C0E9A5FAA502C0EBA5B0
:100D0000FCA53097F1F06E8170E07695762F66271E
:100D1000779567958F81680F711D8D8111C0E9A945
:100D2000FAA9309771F06E818F8109C0EDA5FEA5FB
:100D300002C0EFA5F8A9309721F06E818D8170E097
:100D400009951C823FC0403F510514F09A0106C02E
:100D50009A01207F3070842F8F708D83203E310563
:100D6000F1F0213E310554F4203C3105D1F0203D15
:100D70003105B9F02039310529F511C0243F31057D
:100D800071F0253F310524F4203F3105D9F40DC021
:100D9000293F310599F02F3F3105A1F40BC082E0C6
:100DA00001C081E08B832C830DC081E08EA318A647
:100DB0001FA208C0CE010E94910404C08DE391E0FF
:100DC0000E943305DF91CF910895CF92DF92EF9289
:100DD000FF920F931F936C017A018B010E94020511
:100DE00082E192E0B801A7010E944A096CE271E039
:100DF00080E090E00E94A908C6010E943305C60168
:100E00000E94C0051F910F91FF90EF90DF90CF904F
:100E100008951F93CF93DF9380917601909177018E
:100E2000853691050CF465C0109277011092760119
:100E30008AE291E062E570E046E050E00E94230221
:100E4000CCE7D1E017E107C08AE291E00E94C3013C
:100E50008127895E89938AE291E00E94BD018823FF
:100E600099F78AE291E062E570E00E94B3018AE2BC
:100E700091E060E070E00E94FF018AE291E00E9450
:100E8000020240917E014093780180917F0180931E
:100E900079012091810130E061E070E0C90186278D
:100EA0009727817080937A013695279526273727D3
:100EB000217020937B018DE391E060E050E00E947F
:100EC000A205409179018DE391E061E050E00E943C
:100ED000A20540917A018DE391E062E050E00E942A
:100EE000900440917B018DE391E063E050E00E942B
:100EF000900480917601909177010196909377010B
:100F00008093760161E070E080E090E00E94A908A3
:100F1000DF91CF911F9108950F931F930DE311E07F
:100F2000C80140E05BE460E070E00E94E506C801B3
:100F30000E943C0687B18C6087B94298439A64E668
:100F400070E080E090E00E94A9080AE211E0C80188
:100F50000E942602C80162E570E00E94B301C80148
:100F600060E470E00E94FF01C80160E070E00E9450
:100F7000FF01C8010E94020282E192E060E071E09C
:100F80000E942D0A1F910F9108950E94D3080E947C
:100F90008C070E940907FDCF282F30E0C901865633
:100FA0009F4FFC0194912A573F4FF9018491882368
:100FB00091F0E82FF0E0EE0FFF1FE859FF4FA591E9
:100FC000B491662329F48C91909589238C9308958C
:100FD0008C91892B8C930895482F50E0CA0182553B
:100FE0009F4FFC012491CA0186569F4FFC019491AA
:100FF0004A575F4FFA0134913323D1F1222331F163
:10100000233021F4809180008F7705C0243031F4A3
:10101000809180008F7D8093800018C0213019F46A
:1010200084B58F7704C0223021F484B58F7D84BDD0
:101030000DC0263021F48091B0008F7705C0273095
:1010400029F48091B0008F7D8093B000E32FF0E011
:10105000EE0FFF1FEE58FF4FA591B491662329F4C0
:101060008C91909589238C9308958C91892B8C93E6
:1010700008951F920F920FB60F9211242F938F9302
:101080009F93AF93BF938091820190918301A09130
:101090008401B09185010196A11DB11D809382014B
:1010A00090938301A0938401B09385018091860180
:1010B00090918701A0918801B09189018050904C56
:1010C000AF4FBF4F8093860190938701A093880113
:1010D000B093890127C08091860190918701A091EA
:1010E0008801B091890180589E43A040B040809310
:1010F000860190938701A0938801B0938901809124
:101100008A0190918B01A0918C01B0918D01019683
:10111000A11DB11D80938A0190938B01A0938C0136
:10112000B0938D018091860190918701A0918801F3
:10113000B091890181589E43A040B04060F6BF91B4
:10114000AF919F918F912F910F900FBE0F901F9095
:101150001895EF92FF920F931F937B018C018FB72D
:10116000F89440918A0150918B0160918C017091AB
:101170008D018FBF2FB7F89480918A0190918B01D8
:10118000A0918C01B0918D012FBF841B950BA60BF4
:10119000B70BE816F9060A071B0760F71F910F91B6
:1011A000FF90EF900895789484B5826084BD84B5F3
:1011B000816084BD85B5826085BD85B5816085BD52
:1011C000EEE6F0E0808181608083E1E8F0E08081FC
:1011D00082608083808181608083E0E8F0E08081AC
:1011E00081608083E1EBF0E0808184608083E0EBCC
:1011F000F0E0808181608083EAE7F0E080818460B4
:10120000808380818260808380818160808380810F
:10121000806880831092C10008951F920F920FB6CC
:101220000F9211242F933F934F935F936F937F936C
:101230008F939F93AF93BF93EF93FF934091C6001B
:10124000E0910E02F0910F02CF01019660E870E08C
:101250000E94190B9C018091100290911102281795
:10126000390739F0E257FE4F408330930F02209345
:101270000E02FF91EF91BF91AF919F918F917F915E
:101280006F915F914F913F912F910F900FBE0F90F3
:101290001F901895AF92BF92CF92DF92EF92FF927C
:1012A0000F931F93CF93DF936C017A018B01DC01C5
:1012B0001496AD90BC901597CB01BA0122E030E0B6
:1012C00040E050E00E944E0B205C3D4B404F5F4F92
:1012D000CA01B901A80197010E944E0BC901DA01A8
:1012E0000197A109B109292F3A2F4B2F552747FD07
:1012F0005A950196A11DB11DE5012883E601EE81F5
:10130000FF8181508083EA85FB85208141E050E0A8
:10131000CA010E8402C0880F991F0A94E2F7282B95
:101320002083EA85FB852081CA010F8402C0880FD3
:10133000991F0A94E2F7282B2083EA85FB85808198
:10134000088802C0440F551F0A94E2F7842B80835B
:10135000DF91CF911F910F91FF90EF90DF90CF9091
:10136000BF90AF900895CF93DF93DC011296ED917B
:10137000FC911397EF01CE57DF4F48815981E05818
:10138000FF4F80819181E058F0408417950719F450
:101390002FEF3FEF0CC0E40FF51F2081CA0101962B
:1013A00060E870E00E94190B9983888330E0C901DE
:1013B000DF91CF910895FC01A085B18521898C91A1
:1013C00090E0022E02C0959587950A94E2F780FF7F
:1013D000F6CF0484F585E02D608308958EE191E0D9
:1013E00090931302809312028EE891E0909315027D
:1013F0008093140285EC90E090931702809316027C
:1014000084EC90E0909319028093180280EC90E0B5
:1014100090931B0280931A0281EC90E090931D023E
:1014200080931C0286EC90E090931F0280931E0232
:1014300084E08093200283E08093210287E0809300
:10144000220285E0809323020895DC01ED91FC9156
:101450000190F081E02D099508950F931F93CF938C
:10146000DF938C01EB0109C02196D801ED91FC912D
:101470000190F081E02DC801099568816623A1F7EC
:10148000DF91CF911F910F9108952F923F924F922C
:101490005F926F927F928F929F92AF92BF92CF9204
:1014A000DF92EF92FF920F931F93DF93CF93CDB70D
:1014B000DEB7A0970FB6F894DEBF0FBECDBF1C01FC
:1014C0006A017B01411551056105710549F4DC0193
:1014D000ED91FC910190F081E02D60E3099554C0FD
:1014E000882499245401422E55246624772401E04F
:1014F00010E00C0F1D1F080D191DC701B601A30137
:1015000092010E942C0BF80160830894811C911CAD
:10151000A11CB11CC701B601A30192010E942C0BB2
:10152000C901DA016C017D01C114D104E104F104A7
:10153000F1F681E0E82EF12CEC0EFD1EE80CF91C12
:101540003E010894611C711CD501C4010197A109D9
:10155000B1096C01C818D90814C0F601EE0DFF1DC1
:1015600060816A3010F4605D01C0695CD101ED9169
:10157000FC910190F081E02DC10109950894E108EA
:10158000F1086E147F0449F7A0960FB6F894DEBFF9
:101590000FBECDBFCF91DF911F910F91FF90EF90C4
:1015A000DF90CF90BF90AF909F908F907F906F9083
:1015B0005F904F903F902F900895EF92FF920F937E
:1015C0001F93CF93DF93EC017A018B0177FF0FC05C
:1015D000E881F9810190F081E02D6DE20995109587
:1015E0000095F094E094E11CF11C011D111DCE0149
:1015F000B801A7012AE00E94450ADF91CF911F910F
:101600000F91FF90EF900895DC012115310541F411
:10161000ED91FC910190F081E02D642F09950895E2
:101620002A30310519F40E94DD0A08950E94450A06
:10163000089597FB092E07260AD077FD04D049D0DC
:1016400006D000201AF4709561957F4F0895F6F743
:10165000909581959F4F0895A1E21A2EAA1BBB1B5E
:10166000FD010DC0AA1FBB1FEE1FFF1FA217B3076E
:10167000E407F50720F0A21BB30BE40BF50B661F84
:10168000771F881F991F1A9469F760957095809548
:1016900090959B01AC01BD01CF01089597FB092EE8
:1016A00005260ED057FD04D0D7DF0AD0001C38F431
:1016B00050954095309521953F4F4F4F5F4F08957E
:1016C000F6F790958095709561957F4F8F4F9F4F5E
:1016D0000895AA1BBB1B51E107C0AA1FBB1FA61779
:1016E000B70710F0A61BB70B881F991F5A95A9F7CB
:1016F00080959095BC01CD010895EE0FFF1F0590D8
:0A170000F491E02D0994F894FFCF56
:10170A00576969436875636B44656D6F20726561DB
:10171A0064790A0020002802000000000000DB09AA
:00000001FF
